:020000040800F2
:10D0000000F00020B5BD0108C1280108C3280108AF
:10D01000C5280108C7280108C92801080000000028
:10D02000000000000000000000000000CB28010804
:10D030000000000000000000CD280108CF280108F2
:10D04000FDBD0108D7280108FDBD0108FDBD01088F
:10D05000FDBD0108FDBD0108DB280108FDBD01087B
:10D060007D290108DD280108FDBD0108FDBD01087D
:10D07000FDBD0108FDBD0108FDBD0108FDBD0108A4
:10D08000FDBD0108FDBD0108FDBD0108C92901085C
:10D09000FDBD0108D3280108CD290108FDBD010807
:10D0A000FDBD0108FDBD0108FDBD0108FDBD010874
:10D0B000FDBD0108FDBD0108FDBD0108C529010830
:10D0C000FDBD0108FDBD0108D1280108FDBD010815
:04D0D000FDBD010899
:10D1000010B5054C237833B9044B13B10448AFF381
:10D1100000800123237010BD1006002000000000D5
:10D120002CC7010808B5034B1BB103490348AFF3F3
:10D13000008008BD00000000140600202CC7010874
:10D1400081F0004102E000BF83F0004330B54FEAB8
:10D1500041044FEA430594EA050F08BF90EA020F25
:10D160001FBF54EA000C55EA020C7FEA645C7FEAB8
:10D17000655C00F0E2804FEA5454D4EB5555B8BFDB
:10D180006D420CDD2C4480EA020281EA030382EA4C
:10D19000000083EA010180EA020281EA0303362DDE
:10D1A00088BF30BD11F0004F4FEA01314FF4801CB1
:10D1B0004CEA113102D0404261EB410113F0004FC3
:10D1C0004FEA03334CEA133302D0524263EB43037A
:10D1D00094EA050F00F0A780A4F10104D5F1200E18
:10D1E0000DDB02FA0EFC22FA05F2801841F1000173
:10D1F00003FA0EF2801843FA05F359410EE0A5F147
:10D2000020050EF1200E012A03FA0EFC28BF4CF077
:10D21000020C43FA05F3C01851EBE37101F000452D
:10D2200007D54FF0000EDCF1000C7EEB00006EEB3A
:10D230000101B1F5801F1BD3B1F5001F0CD34908C4
:10D240005FEA30004FEA3C0C04F101044FEA44521B
:10D2500012F5800F80F09A80BCF1004F08BF5FEAA2
:10D26000500C50F1000041EB045141EA050130BD82
:10D270005FEA4C0C404141EB0101013C28BFB1F594
:10D28000801FE9D291F0000F04BF01460020B1FADF
:10D2900081F308BF2033A3F10B03B3F120020CDAB2
:10D2A0000C3208DD02F1140CC2F10C0201FA0CF090
:10D2B00021FA02F10CE002F11402D8BFC2F1200CF5
:10D2C00001FA02F120FA0CFCDCBF41EA0C019040AB
:10D2D000E41AA2BF01EB0451294330BD6FEA0404F4
:10D2E0001F3C1CDA0C340EDC04F11404C4F12002DF
:10D2F00020FA04F001FA02F340EA030021FA04F3F1
:10D3000045EA030130BDC4F10C04C4F1200220FA47
:10D3100002F001FA04F340EA0300294630BD21FA85
:10D3200004F0294630BD94F0000F83F4801306BF4B
:10D3300081F480110134013D4EE77FEA645C18BF3F
:10D340007FEA655C29D094EA050F08BF90EA020FD6
:10D3500005D054EA000C04BF1946104630BD91EACE
:10D36000030F1EBF0021002030BD5FEA545C05D1D1
:10D370004000494128BF41F0004130BD14F5800410
:10D380003CBF01F5801130BD01F0004545F0FE4184
:10D3900041F470014FF0000030BD7FEA645C1ABFB9
:10D3A000194610467FEA655C1CBF0B46024650EAF0
:10D3B000013406BF52EA033591EA030F41F400211C
:10D3C00030BD00BF90F0000F04BF0021704730B5A2
:10D3D0004FF4806404F132044FF000054FF0000177
:10D3E00050E700BF90F0000F04BF0021704730B538
:10D3F0004FF4806404F1320410F0004548BF40420D
:10D400004FF000013EE700BF42004FEAE2014FEA61
:10D4100031014FEA02701FBF12F07F4393F07F4F3C
:10D4200081F06051704732F07F4208BF704793F03F
:10D430007F4F04BF41F40021704730B54FF4607452
:10D4400001F0004521F000411CE700BF50EA010255
:10D4500008BF704730B54FF000050AE050EA0102FE
:10D4600008BF704730B511F0004502D5404261EB6E
:10D4700041014FF4806404F132045FEA915C3FF4AF
:10D48000D8AE4FF003025FEADC0C18BF03325FEA4C
:10D49000DC0C18BF033202EBDC02C2F1200300FAFD
:10D4A00003FC20FA02F001FA03FE40EA0E0021FA22
:10D4B00002F11444BDE600BF70B54FF0FF0C4CF410
:10D4C000E06C1CEA11541DBF1CEA135594EA0C0FC2
:10D4D00095EA0C0F00F0DEF82C4481EA030621EAFD
:10D4E0004C5123EA4C5350EA013518BF52EA033538
:10D4F00041F4801143F4801338D0A0FB02CE4FF0EA
:10D500000005E1FB02E506F00042E0FB03E54FF019
:10D510000006E1FB03569CF0000F18BF4EF0010E11
:10D52000A4F1FF04B6F5007F64F5407404D25FEA0D
:10D530004E0E6D4146EB060642EAC62141EA5551C0
:10D540004FEAC52040EA5E504FEACE2EB4F1FD0C02
:10D5500088BFBCF5E06F1ED8BEF1004F08BF5FEA80
:10D56000500E50F1000041EB045170BD06F0004632
:10D5700046EA010140EA020081EA0301B4EB5C04DF
:10D58000C2BFD4EB0C0541EA045170BD41F48011D7
:10D590004FF0000E013C00F3AB8014F1360FDEBFFC
:10D5A000002001F0004170BDC4F10004203C35DAD8
:10D5B0000C341BDC04F11404C4F1200500FA05F35B
:10D5C00020FA04F001FA05F240EA020001F00042FC
:10D5D00021F0004110EBD37021FA04F642EB060172
:10D5E0005EEA430E08BF20EAD37070BDC4F10C049C
:10D5F000C4F1200500FA04F320FA05F001FA04F260
:10D6000040EA020001F0004110EBD37041F100014B
:10D610005EEA430E08BF20EAD37070BDC4F1200556
:10D6200000FA05F24EEA020E20FA04F301FA05F2BE
:10D6300043EA020321FA04F001F0004121FA04F266
:10D6400020EA020000EBD3705EEA430E08BF20EA36
:10D65000D37070BD94F0000F0FD101F00046400070
:10D6600041EB010111F4801F08BF013CF7D041EAF2
:10D67000060195F0000F18BF704703F000465200F6
:10D6800043EB030313F4801F08BF013DF7D043EAC7
:10D690000603704794EA0C0F0CEA135518BF95EA7D
:10D6A0000C0F0CD050EA410618BF52EA4306D1D104
:10D6B00081EA030101F000414FF0000070BD50EA23
:10D6C000410606BF1046194652EA430619D094EAAD
:10D6D0000C0F02D150EA013613D195EA0C0F05D197
:10D6E00052EA03361CBF104619460AD181EA0301EB
:10D6F00001F0004141F0FE4141F470014FF00000A3
:10D7000070BD41F0FE4141F4780170BD70B54FF03D
:10D71000FF0C4CF4E06C1CEA11541DBF1CEA1355BD
:10D7200094EA0C0F95EA0C0F00F0A7F8A4EB05049F
:10D7300081EA030E52EA03354FEA013100F0888096
:10D740004FEA03334FF0805545EA131343EA12635F
:10D750004FEA022245EA111545EA10654FEA002614
:10D760000EF000419D4208BF964244F1FD0404F5CD
:10D77000407402D25B084FEA3202B61A65EB030529
:10D780005B084FEA32024FF480104FF4002CB6EBE6
:10D79000020E75EB030E22BFB61A754640EA0C0066
:10D7A0005B084FEA3202B6EB020E75EB030E22BFA6
:10D7B000B61A754640EA5C005B084FEA3202B6EBE7
:10D7C000020E75EB030E22BFB61A754640EA9C00A6
:10D7D0005B084FEA3202B6EB020E75EB030E22BF76
:10D7E000B61A754640EADC0055EA060E18D04FEA34
:10D7F000051545EA16754FEA06164FEAC30343EAD4
:10D8000052734FEAC2025FEA1C1CC0D111F4801FA0
:10D810000BD141EA00014FF000004FF0004CB6E799
:10D8200011F4801F04BF01430020B4F1FD0C88BF38
:10D83000BCF5E06F3FF6AFAEB5EB030C04BFB6EB43
:10D84000020C5FEA500C50F1000041EB045170BD36
:10D850000EF0004E4EEA113114EB5C04C2BFD4EB63
:10D860000C0541EA045170BD41F480114FF0000EE7
:10D87000013C90E645EA060E8DE60CEA135594EA63
:10D880000C0F08BF95EA0C0F3FF43BAF94EA0C0F66
:10D890000AD150EA01347FF434AF95EA0C0F7FF4DB
:10D8A00025AF104619462CE795EA0C0F06D152EA2F
:10D8B00003353FF4FDAE1046194622E750EA410613
:10D8C00018BF52EA43067FF4C5AE50EA41047FF424
:10D8D0000DAF52EA43057FF4EBAE12E74FF0FF3C89
:10D8E00006E000BF4FF0010C02E000BF4FF0010C5A
:10D8F0004DF804CD4FEA410C7FEA6C5C4FEA430CD3
:10D9000018BF7FEA6C5C1BD001B050EA410C0CBF21
:10D9100052EA430C91EA030F02BF90EA020F002083
:10D92000704710F1000F91EA030F58BF994208BFEA
:10D9300090422CBFD8176FEAE37040F001007047A7
:10D940004FEA410C7FEA6C5C02D150EA013C07D1FE
:10D950004FEA430C7FEA6C5CD6D152EA033CD3D049
:10D960005DF8040B704700BF8446104662468C4643
:10D970001946634600E000BF01B5FFF7B7FF002876
:10D9800048BF10F1000F01BD4DF808EDFFF7F4FF9F
:10D990000CBF012000205DF808FB00BF4DF808ED2A
:10D9A000FFF7EAFF34BF012000205DF808FB00BF4D
:10D9B0004DF808EDFFF7E0FF94BF012000205DF86F
:10D9C00008FB00BF4DF808EDFFF7CEFF94BF012024
:10D9D00000205DF808FB00BF4DF808EDFFF7C4FF1D
:10D9E00034BF012000205DF808FB00BF4FEA410270
:10D9F00012F5001215D211D56FF47873B3EB6252A1
:10DA000012D94FEAC12343F0004343EA505311F0C7
:10DA1000004F23FA02F018BF404270474FF0000059
:10DA2000704750EA013005D111F0004008BF6FF097
:10DA3000004070474FF00000704700BF4A0011D20D
:10DA400012F5001211D20DD56FF47873B3EB625258
:10DA50000ED44FEAC12343F0004343EA505323FA64
:10DA600002F070474FF00000704750EA013002D1D9
:10DA70004FF0FF3070474FF00000704753B94AB97C
:10DA8000002908BF00281CBF4FF0FF314FF0FF30C6
:10DA900000F092B9ADF1080C6DE904CE00F024F865
:10DAA000DDF804E0DDE9022304B07047D0B50C4B8B
:10DAB000002206460F46FFF7FFFCFFF7BFFF0446B4
:10DAC000FFF780FC074B0022FFF7F6FC02460B46EF
:10DAD00030463946FFF738FBFFF7B0FF2146D0BD8F
:10DAE0000000F03D0000F0412DE9F047089E0D4692
:10DAF00004468846002B4DD18A42944668D9B2FA32
:10DB000082F252B101FA02F3C2F1200120FA01F1CE
:10DB10000CFA02FC41EA030894404FEA1C45210C30
:10DB2000B8FBF5FE1FFA8CF705FB1E8341EA0343A1
:10DB30000EFB07F199420BD91CEB03030EF1FF30EA
:10DB400080F01E81994240F21B81AEF1020E6344C7
:10DB50005B1AA4B2B3FBF5F005FB103344EA0344AF
:10DB600000FB07F7A7420AD91CEB040400F1FF33BE
:10DB700080F00881A74240F2058164440238E41B2A
:10DB800040EA0E4000211EB1D4400023C6E9004304
:10DB9000BDE8F0878B4208D9002E00F0EE8000210E
:10DBA000C6E900050846BDE8F087B3FA83F100290D
:10DBB0004AD1AB4202D3824200F2F980841A65EB6B
:10DBC000030301209846002EE2D0C6E90048DFE7B3
:10DBD00002B9FFDEB2FA82F2002A40F09180A1EB96
:10DBE0000C054FEA1C471FFA8CFE0121B5FBF7F329
:10DBF00007FB1350250C45EA00450EFB03F0A84235
:10DC000008D91CEB050503F1FF3802D2A84200F247
:10DC1000CB8043462D1AA4B2B5FBF7F007FB105595
:10DC200044EA05440EFB00FEA64508D91CEB04049B
:10DC300000F1FF3502D2A64500F2BB802846A4EBD6
:10DC40000E0440EA03409EE7C1F120078B4022FA10
:10DC500007FC4CEA030C20FA07F405FA01F31C4315
:10DC6000FD404FEA1C4900FA01F3B5FBF9F8200C1E
:10DC70001FFA8CFE09FB185540EA054508FB0EF01B
:10DC8000A84202FA01F20BD91CEB050508F1FF3A94
:10DC900080F08880A84240F28580A8F1020865449F
:10DCA0002D1AA4B2B5FBF9F009FB105544EA05455D
:10DCB00000FB0EFEAE4508D91CEB050500F1FF3454
:10DCC0006CD2AE456AD90238654440EA0840A0FBF0
:10DCD0000294A5EB0E05A542C846A64656D353D0DE
:10DCE0005EB1B3EB080265EB0E0505FA07F722FA01
:10DCF00001F3CD401F43C6E900750021BDE8F08760
:10DD0000C2F1200320FA03F10CFA02FC25FA03F316
:10DD100095400D434FEA1C471FFA8CFEB3FBF7F109
:10DD200007FB11302B0C43EA004301FB0EF0984235
:10DD300004FA02F408D91CEB030301F1FF382FD2D7
:10DD400098422DD9023963441B1AADB2B3FBF7F0E8
:10DD500007FB103345EA034500FB0EF3AB4208D93D
:10DD60001CEB050500F1FF3816D2AB4214D902387E
:10DD70006544ED1A40EA014138E73146304607E78D
:10DD80008646E5E61846FAE64B45A9D2B9EB020805
:10DD900064EB0C0E0138A3E74046EAE7204694E71F
:10DDA0004146D1E7D0467BE7023B654432E708466F
:10DDB00009E76444023842E7704700BF844641EAFD
:10DDC000000313F003036DD1403A41D351F8043BF3
:10DDD00040F8043B51F8043B40F8043B51F8043B45
:10DDE00040F8043B51F8043B40F8043B51F8043B35
:10DDF00040F8043B51F8043B40F8043B51F8043B25
:10DE000040F8043B51F8043B40F8043B51F8043B14
:10DE100040F8043B51F8043B40F8043B51F8043B04
:10DE200040F8043B51F8043B40F8043B51F8043BF4
:10DE300040F8043B51F8043B40F8043B51F8043BE4
:10DE400040F8043B51F8043B40F8043B403ABDD253
:10DE5000303211D351F8043B40F8043B51F8043BF5
:10DE600040F8043B51F8043B40F8043B51F8043BB4
:10DE700040F8043B103AEDD20C3205D351F8043B84
:10DE800040F8043B043AF9D2043208D0D2071CBF50
:10DE900011F8013B00F8013B01D30B880380604679
:10DEA000704700BF082A13D38B078DD010F00303EF
:10DEB0008AD0C3F10403D21ADB071CBF11F8013B5F
:10DEC00000F8013B80D331F8023B20F8023B7BE7AE
:10DED000043AD9D3013A11F8013B00F8013BF9D2D9
:10DEE0000B7803704B7843708B7883706046704773
:10DEF0000000000000000000000000000000000022
:10DF0000A2EB0300704700BF02780B78012A28BFFC
:10DF10009A42F5D16DE9044540EA0104CDE9026772
:10DF20006FF0000C4FEA447212B380EA010414F05F
:10DF3000070F6AD100F0070420F0070004F0030582
:10DF400021F007014FEAC505F0E8042314F0040F9F
:10DF5000F1E804670CFA05F462EA040266EA0406D2
:10DF60000AD063EA0403624667EA0407664603E0F0
:10DF7000F0E80423F1E8046782FA4CF582EA06042B
:10DF8000A4FA8CF46CBB83FA4CF583EA0705A5FA76
:10DF90008CF595B950E9022351E9026782FA4CF5F4
:10DFA00082EA0604A4FA8CF483FA4CF583EA0705A6
:10DFB000A5FA8CF52543DBD09CB92DBAB5FA85F4CA
:10DFC00024F0070427FA04F1DDE9026723FA04F3D9
:10DFD00003F0FF0001F0FF01FDE80445A0EB0100A4
:10DFE000704724BAB4FA84F424F0070426FA04F142
:10DFF000DDE9026722FA04F202F0FF0001F0FF01FE
:10E00000FDE80445A0EB0100704714F0030F3CD17C
:10E0100010F0030428D150F8082B51F8083B82FA7D
:10E020004CF582EA0305A5FA8CF55DB950F8042C8D
:10E0300051F8043C82FA4CF582EA0305A5FA8CF506
:10E04000002DE8D02DBAB5FA85F424F0070423FAA0
:10E0500004F122FA04F202F0FF0001F0FF01FDE8F2
:10E060000445A0EB010070474FEAC40420F0030010
:10E0700050F8082B21F0030151F8083B0CFA04F486
:10E0800062EA040263EA0403C9E710F003041AD049
:10E09000A1EB040120F00300E40750F8042B06D0A4
:10E0A0000FD28B785FFAA2F4E41A06D12BB1CB78A9
:10E0B0005FFAB2F4E41A00D11BB920465DF8104BA8
:10E0C000704701F1040150F8042BCC0721F0030143
:10E0D00051F8043B48D824D222F07F4482FA4CF510
:10E0E00094EA1325A5FA8CF50AD165B951F8043BD9
:10E0F00084EA0204B4EB036F0ED150F8042BEBE773
:10E100004FEA132355E035F07F454DD10878FDE8FF
:10E110000445C0F1000070474FEA126203F0FF03AC
:10E1200047E002EA1C4482FA4CF594EA1345A5FA4A
:10E130008CF50AD165B951F8043B84EA0204B4EBCA
:10E14000034F0CD150F8042BEBE74FEA134330E0B8
:10E1500015EA1C4528D10B884FEA124229E04FEA04
:10E16000124203EA1C4324E002F0FF0482FA4CF559
:10E1700094EA1365A5FA8CF50AD165B951F8043B08
:10E1800084EA0204B4EB032F09D150F8042BEBE727
:10E190004FEA13630DE015F0FF0F05D10B684FEA4E
:10E1A000122223F07F4304E04FF00000FDE8044515
:10E1B000704712BA1BBA82FA4CF482EA0304A4FA3A
:10E1C0008CF5B5FA85F402FA04F203FA04F34FEA87
:10E1D0001260FDE80445A0EB1360704700000000EA
:10E1E000000000000000000000000000000000002F
:10E1F000000000000000000000000000000000001F
:10E2000090F800F06DE9024520F007016FF0000C76
:10E2100010F0070491F820F040F049804FF000041E
:10E220006FF00700D1E9002391F840F000F10800F9
:10E2300082FA4CF2A4FA8CF283FA4CF3A2FA8CF331
:10E240004BBBD1E9022382FA4CF200F10800A4FA98
:10E250008CF283FA4CF3A2FA8CF3E3B9D1E90423EC
:10E2600082FA4CF200F10800A4FA8CF283FA4CF323
:10E27000A2FA8CF37BB9D1E9062301F1200182FADD
:10E280004CF200F10800A4FA8CF283FA4CF3A2FAE3
:10E290008CF3002BC6D0002A04BF04301A4612BAF1
:10E2A000B2FA82F2FDE8024500EBD2007047D1E9F4
:10E2B000002304F00305C4F100004FEAC50514F083
:10E2C000040F91F840F00CFA05F562EA05021CBF54
:10E2D00063EA050362464FF00004A9E7F8B5054676
:10E2E00017460C46FFF78CFF83B20133B7EB530F91
:10E2F00015FA80F602DA83B20B2B06D100222046F3
:10E300001146B54208D3001B05E0172BF6D02F2B82
:10E31000F4D04FF0FF30F8BD15F8013BA3F14107F1
:10E32000052F08D8373B1343DBB2A9B1002100F811
:10E33000013B0A46E5E7A3F16107052F01D8573BEA
:10E34000F1E7A3F13007FFB2092F02D847EA020331
:10E35000EBE7202BD5D0DCE71B01DAB20121D0E7B7
:10E36000032837B5154632D004280ED001280ED127
:10E370001A4B1B4A1B7800931A4B1B481B784FF40F
:10E38000FB7105F0C3FB00201FE0002902DC6FF0E9
:10E3900001001AE00022114628680DF0B1FE0022AB
:10E3A000C4B2114668680DF0ABFE631E0E2BC0B2FE
:10E3B000EDD80128EBD80B4B1C70084B18700A4B9A
:10E3C0000122002083F8F621187003B030BD074AFF
:10E3D00005484FF4FB7105F099FBD4E77F0A002054
:10E3E000B6CE01087E0A00202C0600208BCE010844
:10E3F000032873B514463FD0042811D0012811D149
:10E40000214B224A1B880193214B22481B880093F1
:10E41000214B4FF4FB711B7805F078FB002026E0C0
:10E42000002902DC6FF0010021E000221146206883
:10E430000DF066FE00221146C6B260680DF060FE67
:10E44000002285B21146A0680DF05AFE012E83B25B
:10E45000E8D8114A16700F4A0121002082F8F611FF
:10E46000107035B12BB10A4A1580074A138002B0EB
:10E4700070BD82F8F601D5E7084A06484FF4FB71F3
:10E4800005F044FBCAE700BF7C0A0020B3CE0108B8
:10E490007A0A00202C060020780A0020BECE01084F
:10E4A00070B5C4B01346002407AA0328054600929D
:10E4B000ADF804402AD0042801D1A14202DC6FF05B
:10E4C000010010E01868224621460DF019FEC0B286
:10E4D0000128F4D1114B1C7002F0B8F8012806464F
:10E4E00003D06FF0030044B070BD02A88DF808504F
:10E4F0000DF026F8009B8DF8055021461C706846EB
:10E500008DF8046002F0AEF82046ECE7044A0348B8
:10E510004FF4FB7105F0FAFAF6E700BF2C06002075
:10E52000E2CE010830B5032893B013463BD004284F
:10E5300020D0012820D107A807F040FA079C09A99C
:10E54000204607F077FA099B04930A9B03930B9BE1
:10E5500002930C9B01930D9B00930E9B154A16484A
:10E56000059403F26C734FF4FB7105F0CFFA0020B1
:10E5700013B030BD002902DC6FF00100F8E7002481
:10E58000186822462146CDE909440DF06DFE0B4B7B
:10E59000984209ADF0D9099095E8030007F0D2F947
:10E5A000054B1C70E3E7064A03484FF4FB7105F086
:10E5B000ADFADCE7F4CE01082C0600200019C16199
:10E5C0001CCF010803282DE9F3410E46174662D0FF
:10E5D000042812D0012826D102F038F9314A1278E5
:10E5E0000192314A127800920346304A30484FF483
:10E5F000FB7105F08BFA00203EE0002913DDDFF807
:10E60000B0800024012988F800400FD138682246E4
:10E6100021460DF075FDC5B2012D88F8F6612ED9A1
:10E62000002388F8F6316FF0010025E0032928D196
:10E630002246214638680DF063FD22462146C5B2C8
:10E6400078680DF05DFD22462146C6B2B8680DF02F
:10E6500057FD01239D42C4B288F8F631E0D8072E59
:10E66000DED89C42DCD875B9002002F0E9F80E4BE8
:10E670001E700C4B0020187002B0BDE8F081072618
:10E68000F1E70726F0E7012002F0DAF8064B1E70EA
:10E69000044B1C70AFE7074A05484FF4FB7105F0C7
:10E6A00035FAA8E7730A0020720A0020B3CE0108E9
:10E6B0002C06002042CF010803281FB52FD00428C4
:10E6C00012D0012832D1002401A88DF804400CF0AA
:10E6D00035FD9DF80830174A174841334FF4FB7158
:10E6E00005F014FA002015E000291FDD00238DF845
:10E6F000043013681B78413B022B17D801A88DF812
:10E7000008300CF0B7FD0C4B30B9012283F8F6212C
:10E7100000221A7004B010BD6FF00200F8E7074A3B
:10E7200005484FF4FB7105F0F1F9DBE76FF00100EC
:10E73000F0E700BF6BCF01082C06002070CF010866
:10E7400003281FB5134632D0042810D0012810D159
:10E75000192301A88DF804300CF0F0FC029B174A35
:10E7600017484FF4FB7105F0D1F9002019E000299A
:10E7700002DC6FF0010014E00022186811460DF071
:10E78000BFFC0028F5D01923029001A88DF80430B1
:10E790000CF070FD0A4B38B9012283F8F6210022F3
:10E7A0001A7005B05DF804FB6FF00200F7E7054A48
:10E7B00003484FF4FB7105F0A9F9D6E78ECF0108A5
:10E7C0002C06002093CF010803281FB5134632D032
:10E7D000042810D0012810D1182301A88DF8043086
:10E7E0000CF0ACFC029B174A17484FF4FB7105F084
:10E7F0008DF9002019E0002902DC6FF0010014E01F
:10E800000022186811460DF07BFC0028F5D0182373
:10E81000029001A88DF804300CF02CFD0A4B38B999
:10E82000012283F8F62100221A7005B05DF804FB7E
:10E830006FF00200F7E7054A03484FF4FB7105F05B
:10E8400065F9D6E78ECF01082C060020BBCF010862
:10E8500000B5032889B013463ED0042819D00128FA
:10E8600019D1032305A88DF814300CF067FC069B22
:10E870001D48DAB20292C3F307220192C3F30742A2
:10E8800000921B0E194A4FF4FB7105F03FF900206E
:10E890001CE0002902DC6FF0010017E0024604A929
:10E8A0001868FFF71BFDC0B20428F4D103238DF8CC
:10E8B0001430049B05A81BBA06930CF0DBFC0A4B32
:10E8C00038B9012283F8F62100221A7009B05DF8E8
:10E8D00004FB6FF00200F7E7054A03484FF4FB71B1
:10E8E00005F014F9D3E700BF2C06002098D30108E7
:10E8F000E1CF010803281FB5134632D0042810D0F9
:10E90000012810D1132301A88DF804300CF016FC57
:10E91000029B174A17484FF4FB7105F0F7F80020E7
:10E9200019E0002902DC6FF0010014E000221868F1
:10E9300011460DF0E5FB0028F5D01323029001A845
:10E940008DF804300CF096FC0A4B38B9012283F89C
:10E95000F62100221A7005B05DF804FB6FF002008A
:10E96000F7E7054A03484FF4FB7105F0CFF8D6E707
:10E970008ECF01082C060020FDCF010803281FB50B
:10E98000134632D0042810D0012810D1122301A838
:10E990008DF804300CF0D2FB029B174A17484FF455
:10E9A000FB7105F0B3F8002019E0002902DC6FF0DC
:10E9B000010014E00022186811460DF0A1FB0028A8
:10E9C000F5D01223029001A88DF804300CF052FC0F
:10E9D0000A4B38B9012283F8F62100221A7005B0DB
:10E9E0005DF804FB6FF00200F7E7054A03484FF4B7
:10E9F000FB7105F08BF8D6E78ECF01082C060020BE
:10EA000059D0010803281FB5134632D0042810D06E
:10EA1000012810D1112301A88DF804300CF08EFBD1
:10EA2000029B174A17484FF4FB7105F06FF800205E
:10EA300019E0002902DC6FF0010014E000221868E0
:10EA400011460DF05DFB0028F5D01123029001A8BE
:10EA50008DF804300CF00EFC0A4B38B9012283F813
:10EA6000F62100221A7005B05DF804FB6FF0020079
:10EA7000F7E7054A03484FF4FB7105F047F8D6E77E
:10EA80008ECF01082C060020B5D0010803281FB541
:10EA9000134632D0042810D0012810D1102301A829
:10EAA0008DF804300CF04AFB029B174A17484FF4CC
:10EAB000FB7105F02BF8002019E0002902DC6FF053
:10EAC000010014E00022186811460DF019FB00281F
:10EAD000F5D01023029001A88DF804300CF0CAFB89
:10EAE0000A4B38B9012283F8F62100221A7005B0CA
:10EAF0005DF804FB6FF00200F7E7054A03484FF4A6
:10EB0000FB7105F003F8D6E78ECF01082C06002034
:10EB100000D1010830B5032885B013463BD0042846
:10EB200011D0012811D10A2301A88DF804300CF06E
:10EB300005FB9DF80C301B4A1B484FF4FB7104F099
:10EB4000E5FF002022E0002902DC6FF001001DE05B
:10EB50000022186811460DF0D3FAC4B20F2CF4D875
:10EB60000A2501A88DF804500CF0E8FA01A88DF8E8
:10EB700004508DF80C400CF07DFB0C4B01221A70F8
:10EB8000094B28B983F8F62100221A7005B030BD70
:10EB90006FF00200F8E7064A03484FF4FB7104F0F7
:10EBA000B5FFCEE7CBDD01082C060020710900205F
:10EBB0004BD1010830B5032885B013463AD004285C
:10EBC00010D0012810D10A2301A88DF804300CF0D0
:10EBD000B5FA029B1B4A1C484FF4FB7104F096FFE8
:10EBE000002022E0002902DC6FF001001DE000227D
:10EBF000186811460DF084FA144B154A03449342E9
:10EC00000446F1D80A2501A88DF804500CF096FAB4
:10EC100001A88DF8045002940CF02CFB0A4B30B97B
:10EC2000012283F8F62100221A7005B030BD6FF082
:10EC30000200F8E7074A04484FF4FB7104F066FF4E
:10EC4000CEE700BF8ECF01082C060020FF1E0AFA77
:10EC5000BEA695358DD1010803281FB5134637D0C0
:10EC6000042811D0012811D1072301A88DF8043000
:10EC70000CF064FA9DF80830194A1A484FF4FB71F9
:10EC800004F044FF00201DE0002902DC6FF00100C9
:10EC900018E00022186811460DF032FAC3B2012BB9
:10ECA000F4D800F0010007238DF8080001A88DF8C2
:10ECB00004300CF0DFFA0B4B38B9012283F8F6214F
:10ECC00000221A7005B05DF804FB6FF00200F7E750
:10ECD000054A04484FF4FB7104F018FFD2E700BF67
:10ECE000CBDD01082C060020B3D1010803281FB595
:10ECF000134638D0042811D0012811D1162301A8B9
:10ED00008DF804300CF01AFA9DF90830194A1A48A7
:10ED10004FF4FB7104F0FAFE00201EE0002902DC33
:10ED20006FF0010019E00022186811460DF0E8F9B3
:10ED3000C3B20F2B02D9283B0C2BF1D816238DF828
:10ED4000080001A88DF804300CF094FA0A4B38B989
:10ED5000012283F8F62100221A7005B05DF804FB49
:10ED60006FF00200F7E7054A03484FF4FB7104F027
:10ED7000CDFED1E7CBDD01082C060020E9D101084A
:10ED800003281FB5134637D0042811D0012811D10C
:10ED9000022301A88DF804300CF0D0F99DF808305A
:10EDA000194A1A484FF4FB7104F0B0FE00201DE030
:10EDB000002902DC6FF0010018E0002218681146FB
:10EDC0000DF09EF9C3B2012BF4D800F0010002232C
:10EDD0008DF8080001A88DF804300CF04BFA0B4BAD
:10EDE00038B9012283F8F62100221A7005B05DF8C7
:10EDF00004FB6FF00200F7E7054A04484FF4FB718B
:10EE000004F084FED2E700BFCBDD01082C06002011
:10EE100038D20108032838B513462BD004280ED069
:10EE2000012824D101F0A4FC421E5342534115484D
:10EE3000154A4FF4FB7104F069FE002038BD00292B
:10EE400015DD0022186811460DF05AF90D4B01220C
:10EE5000002410F0FF0583F8F6211C7003D128462A
:10EE600001F080FCE9E7012DF9D083F8F6416FF05D
:10EE70000100E3E7054A03484FF4FB7104F046FE46
:10EE8000DBE700BF2C060020CBDD010875D20108AE
:10EE9000032838B513462BD004280ED0012824D1DE
:10EEA00001F076FC421E534253411548154A4FF477
:10EEB000FB7104F02BFE002038BD002915DD002277
:10EEC000186811460DF01CF90D4B0122002410F0BA
:10EED000FF0583F8F6211C7003D1284601F04EFC93
:10EEE000E9E7012DF9D083F8F6416FF00100E3E77F
:10EEF000054A03484FF4FB7104F008FEDBE700BF4E
:10EF00002C060020CBDD0108ABD2010803281FB579
:10EF100013462FD0042812D0012812D1152301A89E
:10EF20008DF804300CF00AF99DF90830154A16489E
:10EF30004FF4FB7104F0EAFD002004B010BD00297D
:10EF400002DC6FF00100F8E70022186811460DF0AE
:10EF5000D7F8C3B2072BF4D80B4C40B201F094FCA5
:10EF60000A4A4FF4FB71204604F0D0FD012384F8D7
:10EF7000F631E1E7064A04484FF4FB7104F0C6FDA0
:10EF8000DAE700BFCBDD01082C060020FDD2010826
:10EF900024D3010800B5032895B0134656D00428A1
:10EFA0003BD001283BD110A801F03CFC9DF84F302C
:10EFB0000E939DF84E300D939DF84D300C939DF8B7
:10EFC0004C300B939DF84B300A939DF84A300993CF
:10EFD0009DF8493008939DF8483007939DF84730D5
:10EFE00006939DF8463005939DF8453004939DF8AF
:10EFF000443003939DF8433002939DF842300193CF
:10F000009DF841300093154A9DF8403014484FF464
:10F01000FB7104F07BFD002015E0002902DC6FF09D
:10F02000010010E01868102210A9FFF757F9C0B2CC
:10F030001028F4D110A801F0FBFB094B012200209D
:10F0400083F8F721187015B05DF804FB054A0448F1
:10F050004FF4FB7104F05AFDDDE700BF5CD30108FB
:10F060002C060020AED3010800B5032895B0134646
:10F0700056D004283BD001283BD110A801F0C4FB96
:10F080009DF84F300E939DF84E300D939DF84D3006
:10F090000C939DF84C300B939DF84B300A939DF8E0
:10F0A0004A3009939DF8493008939DF848300793FA
:10F0B0009DF8473006939DF8463005939DF84530FE
:10F0C00004939DF8443003939DF8433002939DF8D8
:10F0D000423001939DF841300093154A9DF840302D
:10F0E00014484FF4FB7104F011FD002015E00029D5
:10F0F00002DC6FF0010010E01868102210A9FFF781
:10F10000EDF8C0B21028F4D110A801F083FB094B30
:10F110000122002083F8F721187015B05DF804FB78
:10F12000054A04484FF4FB7104F0F0FCDDE700BF32
:10F130005CD301082C060020D3D3010800B50328B6
:10F1400095B0134656D004283BD001283BD110A8D7
:10F1500001F040FB9DF84F300E939DF84E300D931B
:10F160009DF84D300C939DF84C300B939DF84B302F
:10F170000A939DF84A3009939DF8493008939DF809
:10F18000483007939DF8473006939DF84630059325
:10F190009DF8453004939DF8443003939DF8433027
:10F1A00002939DF8423001939DF841300093154A37
:10F1B0009DF8403014484FF4FB7104F0A7FC002088
:10F1C00015E0002902DC6FF0010010E01868102241
:10F1D00010A9FFF783F8C0B21028F4D110A801F0ED
:10F1E000FFFA094B0122002083F8F721187015B0AF
:10F1F0005DF804FB054A04484FF4FB7104F086FCFB
:10F20000DDE700BF5CD301082C060020FCD3010819
:10F2100000B503288BB013463ED0042823D0012824
:10F2200023D108A801F0C8FA9DF8273006939DF86D
:10F23000263005939DF8253004939DF824300393E0
:10F240009DF8233002939DF8223001939DF82130E0
:10F250000093154A9DF8203014484FF4FB7104F0D8
:10F2600055FC002015E0002902DC6FF0010010E0E1
:10F270001868082208A9FFF731F8C0B20828F4D1AD
:10F2800008A801F09FFA094B0122002083F8F7211A
:10F2900018700BB05DF804FB054A04484FF4FB718D
:10F2A00004F034FCDDE700BF84D301082C06002005
:10F2B0001DD4010800B503288BB013463ED00428A6
:10F2C00023D0012823D108A801F068FA9DF827303F
:10F2D00006939DF8263005939DF8253004939DF8FC
:10F2E000243003939DF8233002939DF8223001933C
:10F2F0009DF821300093154A9DF8203014484FF4B2
:10F30000FB7104F003FC002015E0002902DC6FF023
:10F31000010010E01868082208A9FEF7DFFFC0B25C
:10F320000828F4D108A801F03FFA094B0122002077
:10F3300083F8F72118700BB05DF804FB054A044808
:10F340004FF4FB7104F0E2FBDDE700BF84D301085A
:10F350002C0600203ED40108012807B506D003285A
:10F3600010D06FF0010003B05DF804FB094B00936F
:10F37000094B0A4A1B680A484FF4FB7104F0C6FBAC
:10F380000020F0E7074A06484FF4FB7104F0BEFB8B
:10F39000F6E700BF62D40108580000205AD40108E3
:10F3A0002C06002067D40108012838B504D00328B2
:10F3B00024D06FF0010038BD114C94F8F831ABB98E
:10F3C000104D2B785A0704D594F8F9110E4804F023
:10F3D00047FBD4F8FC314BB12B785B0703D50B49C5
:10F3E0000B4804F03DFB0023C4F8FC31094A0448F3
:10F3F0004FF4FB7104F08AFB0020DCE7064AF6E7D5
:10F400002C0600205D00002096D401082C08002066
:10F410009AD4010835DE01089DD401080128F8B509
:10F4200004D003282CD06FF00100F8BD154C94F8DF
:10F43000F83193B9144E3378590704D594F8F9117B
:10F44000124804F00DFB124F0025D4F8FC21EBB25A
:10F4500093420AD30023C4F8FC310E4A09484FF402
:10F46000FB7104F053FB0020DFE73278520705D52B
:10F470002344384693F8001204F0F2FA0135E4E729
:10F48000054AEBE72C0600205D00002096D4010819
:10F49000C6D4010835DE0108CBD40108022808B51E
:10F4A00004D003280DD06FF0010008BD0748084ABA
:10F4B000012380F8FF324FF4FB7104F027FB00209A
:10F4C000F3E7044A01484FF4FB71F6E72C060020ED
:10F4D00011D5010824D5010803282DE9F04114466F
:10F4E0002BD004282ED100292CDD002211462068C3
:10F4F000164D0CF005FE00221146074660680CF020
:10F50000FFFD002211468046A068114C0CF0F8FD6A
:10F510000026034624692E700FFA88F239463046D9
:10F52000A04740B10B4A4FF4FB71284604F0EEFAB5
:10F530000020BDE8F081084AF5E7084A03484FF487
:10F54000FB71F3E76FF00100F3E700BF2C0600202A
:10F550007CCD01083BD5010842D5010849D50108F9
:10F56000022808B50DD0032830D0012830D11A4B1D
:10F570001A4A1B781A484FF4FB7104F0C7FA0020AE
:10F5800008BD184806F032FB174806F02FFB174855
:10F5900006F02CFB164806F029FB164806F026FB61
:10F5A000154806F023FB154806F020FB144806F02A
:10F5B0001DFB144806F01AFB074B01221A70124A71
:10F5C00007484FF4FB7104F0A1FAD8E70F4AF7E7B8
:10F5D0006FF00100D4E700BF880A0020CBDD0108EE
:10F5E0002C06002018290020682D0020FC2800206F
:10F5F000B42900202C290020D409002090090020E3
:10F60000A8090020C009002060D5010868D50108BC
:10F61000012808B504D003280DD06FF0010008BD03
:10F6200006F096F8074A03464FF4FB71064804F0CB
:10F630006DFA0020F3E7054A03484FF4FB7104F02C
:10F6400065FAF6E7CBDD01082C06002079D5010824
:10F65000032808B5134628D004280CD001280CD163
:10F6600000F052FF144A03464FF4FB71134804F0B4
:10F670004DFA002018E0002902DC6FF0010013E0D1
:10F680000022186811460CF03BFD0D4B0D4A034457
:10F69000934201D90028F0D100F03CFF074B012232
:10F6A000002083F8F621187008BD074A03484FF47C
:10F6B000FB7104F02BFADCE78ECF01082C0600204A
:10F6C000FF1E0AFAFDE8A435A1D50108032808B5F4
:10F6D00013461FD004280CD0012822D101F0C8F80D
:10F6E000114A03464FF4FB71104804F00FFA002052
:10F6F0000FE0002915DD0022186811460CF000FD0E
:10F70000C0B201F0AFF8094B0122002083F8F621C6
:10F71000187008BD064A05484FF4FB7104F0F6F96D
:10F72000E5E76FF00100F4E7CBDD01082C060020CF
:10F73000DBD50108012808B504D003280DD06FF0EF
:10F74000010008BD01F09AF8074A03464FF4FB7127
:10F75000064804F0DBF90020F3E7054A03484FF4BC
:10F76000FB7104F0D3F9F6E7CBDD01082C0600208D
:10F77000FDD50108012808B504D003280DD06FF08D
:10F78000010008BD01F068F8074A03464FF4FB7119
:10F79000064804F0BBF90020F3E7054A03484FF49C
:10F7A000FB7104F0B3F9F6E7CBDD01082C0600206D
:10F7B00028D6010803282DE9F04114463DD004283D
:10F7C00001D1002902DC6FF0010032E00022114675
:10F7D00020680CF095FC00221146C6B260680CF05F
:10F7E0008FFC00221146C7B2A0680CF089FC0546C8
:10F7F0001FFA80F8E068FEF703FDC3B25A1ED2B2CA
:10F80000F12AE0D89845DED100F020FF01281CD174
:10F81000E268EBB23946304601F030FD01280AD0EB
:10F8200002280CBF6FF002006FF00100084B0022AD
:10F830001A70BDE8F0810020F8E7064A04484FF44A
:10F84000FB7104F063F90020F3E76FF00300F0E7C9
:10F850002C06002052D601082DE9F0410328BEB045
:10F8600017467FD0042801D1002902DC6FF0010087
:10F8700030E00022114638680CF042FC00221146AC
:10F88000044678680CF03CFC002211460546B86836
:10F890000CF036FCD7F80C8006464046FEF7B0FC6C
:10F8A00083B20133B2B2B2EB530F18FA80F700F013
:10F8B000010C12DA4FF0FF32D7B27B1EDBB2F12B14
:10F8C000D4D8B6B2BE42D1D100F0C0FE012835D0A6
:10F8D0006FF003003EB0BDE8F08101AA40464FF052
:10F8E000000E1146874201D8521AE5E710F8013B95
:10F8F000A3F14108B8F1050F0CD8373B43EA0E03DA
:10F90000DBB2BCF1000F13D04FF0000C02F8013B4A
:10F91000E646E7E7A3F16108B8F1050F01D8573BC8
:10F92000ECE7303BDBB2092BC4D843EA0E03E8E72F
:10F930001B015FFA83FE4FF0010CD3E73B4601AA9F
:10F94000E9B2E0B201F09AFC012809D002280CBF0C
:10F950006FF002006FF00100064B00221A70B9E749
:10F960000020F9E7044A03484FF4FB7104F0CEF895
:10F970000020AFE72C06002096D6010801281FB50D
:10F9800006D0032813D06FF0010005B05DF804FB2A
:10F990008DF8040001A80BF0D1FB9DF80830074A50
:10F9A00007484FF4FB7104F0B1F80020EDE7054A79
:10F9B00003484FF4FB7104F0A9F8F6E7CBDD01082A
:10F9C0002C060020E1D60108022810B504D0032837
:10F9D00009D06FF0010010BD064B00241C7000F030
:10F9E000DDFD0020F7E7044A02484FF4FB7104F004
:10F9F0008DF8F6E72C060020F7D60108032807B596
:10FA0000134628D004280CD001280CD100F0F0FEB9
:10FA1000144A03464FF4FB71134804F077F80020B2
:10FA200016E0002902DC6FF0010011E0024601A996
:10FA30001868FEF753FCC0B20428F4D1019800BA4C
:10FA400000F0DCFE084B0122002083F8F72118703B
:10FA500003B05DF804FB054A03484FF4FB7104F062
:10FA600055F8DCE706D701082C0600200DD7010861
:10FA700000B50228A1B006D0032826D06FF00100FF
:10FA800021B05DF804FB00217C2201A800910CF05C
:10FA9000DBF972B6104804F0BFFC052004F094F9BD
:10FAA0000D488022694604F0E9FC683005D10B4A14
:10FAB0000B484FF4FB7104F029F862B6642004F09F
:10FAC00083F905F069FC0020DAE7064A04484FF4A0
:10FAD000FB7104F01BF8F6E700F003082DD70108CE
:10FAE0002C06002039D70108022808B504D00328C5
:10FAF00006D06FF0010008BD05F04EFC0020FAE7CB
:10FB0000034A04484FF4FB7104F000F8F6E700BF25
:10FB10006DD701082C060020032808B513461FD016
:10FB200004280BD0012822D11248134A90F8003340
:10FB30004FF4FB7103F0EAFF002010E0002916DD0E
:10FB40000022186811460CF0DBFA0A4B012283F8F8
:10FB50000003002083F8012383F8F621187008BD04
:10FB6000064A04484FF4FB7103F0D0FFE4E76FF05E
:10FB70000100F4E72C060020CBDD010887D701083F
:10FB8000032808B513461FD004280BD0012822D122
:10FB90001248134A90F802334FF4FB7103F0B6FF9A
:10FBA000002010E0002916DD0022186811460CF034
:10FBB000A7FA0A4B012283F80203002083F80323EB
:10FBC00083F8F621187008BD064A04484FF4FB710B
:10FBD00003F09CFFE4E76FF00100F4E72C0600203F
:10FBE000CBDD0108D9D70108032808B5134623D077
:10FBF00004280BD001280BD1134B144A1B7814484E
:10FC00004FF4FB7103F082FF002014E0002902DCB6
:10FC10006FF001000FE00022186811460CF070FA36
:10FC2000C0B20128F4D8084B1870094B01220020FB
:10FC300083F8F621187008BD064A05484FF4FB7199
:10FC400003F064FFE0E700BF73090020CBDD01088B
:10FC50002C0600202BD80108032808B5134623D012
:10FC600004280BD001280BD1134B144A1B881448CD
:10FC70004FF4FB7103F04AFF002014E0002902DC7E
:10FC80006FF001000FE00022186811460CF038FAFE
:10FC900080B20028F4D0084B1880094B01220020C4
:10FCA00083F8F621187008BD064A05484FF4FB7129
:10FCB00003F02CFFE0E700BF6C000020CBDD010863
:10FCC0002C0600206BD80108032808B5134623D062
:10FCD00004280BD001280BD1134B144A1B7814486D
:10FCE0004FF4FB7103F012FF002014E0002902DC46
:10FCF0006FF001000FE00022186811460CF000FAC6
:10FD0000C0B20428F4D8084B1870094B0122002017
:10FD100083F8F621187008BD064A05484FF4FB71B8
:10FD200003F0F4FEE0E700BF740A0020CBDD010819
:10FD30002C060020A5D80108032808B513461DD0BD
:10FD400004280BD0012820D1114B124A1B781248ED
:10FD50004FF4FB7103F0DAFE00200EE0002914DD01
:10FD60000022186811460CF0CBF9094B18700A4BA9
:10FD70000122002083F8F621187008BD074A0648C2
:10FD80004FF4FB7103F0C2FEE6E76FF00100F4E709
:10FD9000760A0020CBDD01082C060020C1D801081E
:10FDA000032808B5134623D004280BD001280BD113
:10FDB000134B144A1B7814484FF4FB7103F0A6FE52
:10FDC000002014E0002902DC6FF001000FE00022A7
:10FDD000186811460CF094F9C0B20128F4D8084B09
:10FDE0001870094B0122002083F8F621187008BD15
:10FDF000064A05484FF4FB7103F088FEE0E700BFB8
:10FE0000770A0020CBDD01082C060020DAD8010893
:10FE1000032808B5134623D004280BD001280BD1A2
:10FE2000134B144A1B7814484FF4FB7103F06EFE19
:10FE3000002014E0002902DC6FF001000FE0002236
:10FE4000186811460CF05CF910F0FF00F4D0084B74
:10FE50001870094B0122002083F8F621187008BDA4
:10FE6000064A05484FF4FB7103F050FEE0E700BF7F
:10FE70008C090020CBDD01082C06002003D90108E5
:10FE8000032808B5134625D004280BD001280BD130
:10FE9000144B154A1B7815484FF4FB7103F036FEDE
:10FEA000002016E0002902DC6FF0010011E00022C2
:10FEB000186811460CF024F9C3B2012BF4D8094B91
:10FEC00000F001001870094B0122002083F8F62190
:10FED000187008BD064A05484FF4FB7103F016FE82
:10FEE000DEE700BF72090020CBDD01082C060020F0
:10FEF00035D90108032808B5134625D004280BD0AE
:10FF000001280BD1144B154A1B7815484FF4FB718F
:10FF100003F0FCFD002016E0002902DC6FF0010078
:10FF200011E00022186811460CF0EAF8C3B2012B68
:10FF3000F4D8094B00F001001870094B0122002091
:10FF400083F8F621187008BD064A05484FF4FB7186
:10FF500003F0DCFDDEE700BF750A0020CBDD010801
:10FF60002C0600206FD9010870B5064D06461446D0
:10FF700005F5007007F09FFFC5F8FC4185F8F961B1
:10FF800070BD00BF2C06002010B5194C94F8043346
:10FF900043BB20F02003413B192B15D9A0F12003CE
:10FFA000DBB21F2B0BD90D2801D00A281AD1B4F8C7
:10FFB0000633B3F5FB7F0CD20022E25412E00D4A67
:10FFC00022FA03F3DB070DD5B4F80633B3F5FB7F54
:10FFD00009D307484FF4FB72FF210BF035FF0023D4
:10FFE000A4F8063310BD5A1CE054A4F80623F9E720
:10FFF0002C0600200138FFA708B5054B1B785B07CE
:020000040801F1
:10000000014602D5034803F02BFD002008BD00BFC8
:100010005D0000209AD4010802282DE9F74F07D08F
:10002000032800F09D806FF0010003B0BDE8F08F61
:10003000504CDFF888810023237098F800307BB99A
:1000400000F004FB012804D14B4B1B68DD0700F1D5
:100050008E804A4B1B78580702D5494803F000FDB3
:100060004848494EDFF814B1424F05F0BFFD4748FC
:1000700005F0BCFD464805F0B9FD464805F0B6FD63
:10008000454805F0B3FD454805F0B0FD444805F08E
:10009000ADFD0025012384F8F831AA460022D6F8E8
:1000A000049011460120C847F8B99BF80020336836
:1000B000510705D519463B48019303F0D1FC019B3C
:1000C00039491846FDF720FF024638B984F8F8018F
:1000D00001460120C847012384F8F8313846FEF76D
:1000E0008FF801463846FFF787FF4FF4FB72FF2178
:1000F00038460135A4F806A30BF0A6FE372D06F10D
:100100000806CBD14FF00003284A1A4884F8F8318A
:100110004FF4FB7103F0FAFC4FF47A7003F054FED5
:1001200098F800400CB100207FE700F08FFA01281A
:1001300007D1124B1B785A07F5D51D4803F090FCE8
:10014000F1E71C4B1B78002BEDD10C4B1B785B07A8
:1001500002D5174803F084FC0C4805F0D7FCE2E711
:10016000154A04484FF4FB7103F0D0FCDBE76FF055
:1001700002005AE72C060020102900205D00002014
:10018000A3D901081829002048C70108682D0020BC
:10019000FC280020B42900202C290020D4090020AC
:1001A00090090020D9D90108DFD9010835DE0108FE
:1001B000E6D9010888090020F7D90108880A00203B
:1001C0002DE9F0437F4DB5F80623931E022A93B024
:1001D0001BB20CD8AA5C52B9A5F80623FF214FF434
:1001E000FB72284613B0BDE8F0430BF02DBE002B88
:1001F0002BDD2B449C7844BB012385F804332B78FA
:10020000412B25D0704B714A6E484FF4FB7103F0BF
:100210007DFC4FF0FF346B48FDF7F2FF0146694863
:10022000FFF7EAFE34B96A4B1B785B0702D56948D1
:1002300003F016FC00246348A5F806434FF4FB7254
:10024000FF210BF001FE85F8044313B0BDE8F083F5
:100250006B78542BD6D1AB785F4E3F2B33D1EB78F4
:100260008BBBDFF86C91574F1C4698460022736891
:1002700011460320984770B999F800305B0703D501
:100280003168564803F0ECFB3846FDF7B9FF0146EC
:100290003846FFF7B1FE322003F096FD01344FF4EB
:1002A000FB72FF213846A5F806830BF0CDFD372CF5
:1002B00006F10806DAD14A4A42484FF4FB7103F0CE
:1002C00025FC0024A7E7DFF81C8156F834100191C3
:1002D0000846FDF795FF01990246814641480BF01B
:1002E00005FE0746D0B906EBC40408EB09006468B4
:1002F000002C87D018F80910A1B902AA0220A04743
:100300000446661C3FF47EAFA01C52D1364B2F4AE8
:100310002C484FF4FB7103F0F9FB7CE70134372CD8
:10032000D3D16FE7202903D1029002AA0121E5E78A
:100330003F2906D1417800297FF464AF02AA032047
:10034000DDE73D297FF45EAF42783F2A04D1817812
:1003500011B902AA0120D2E72449DFF890900130B8
:100360000BF004FE0DF108080646CEB902AA394684
:100370000420A04704460028C3D195F8F731012B8B
:1003800003D185F8F76100F08BFA95F8F631012B6F
:100390007FF441AF002385F8F63100F009FB3AE71E
:1003A00048F8046B494600200BF0E0FD0137064693
:1003B000DBE7E11C01D10E4BA9E7221D7FF42BAF37
:1003C0000C4BA4E72C06002012DA01081BDA010806
:1003D0005D00002059DA010848C7010822DA010847
:1003E00035DE01082E0600202BDA010829DA010883
:1003F0003ADA010848DA0108044800234FF4FB7296
:10040000FF21A0F806330BF01FBD00BF2C06002013
:10041000014B01221A7070473C09002010B5037887
:10042000044613B1012B0CD010BD43782BB90B4BF4
:100430005B68BDE810405B691847094B01221A70E0
:10044000F2E74378002BEFD10BF0B8FB0028EBD09C
:100450002046BDE810400BF0C1BB00BF3C090020A6
:10046000870A002073B5214A214E224D00231370C4
:1004700033702B704378044653BB0BF09FFB08B1DD
:100480000BF0A2FB637B1BB3E378E02B06D11A4988
:10049000204602B0BDE870400BF0AEBB2278CAB96E
:1004A000164A1278012A00D132708DF80530237B6C
:1004B0008DF80430A3680093114BE289A3F848201B
:1004C000227C83F84A200F4B5B6868461B6998477B
:1004D00002B070BD012AE8D1084A1278022A01D080
:1004E000042AE2D101222A70DFE700BFA50900201B
:1004F000850A0020860A002044090020740A002092
:10050000000000203C090020014B9869704700BFA3
:100510003C090020014B9861704700BF3C09002056
:1005200010B5094C0A2384F82030084B1B785B0770
:1005300002D5074803F094FA082384F82130054BCC
:10054000054A9A6510BD00BF3C0900205D000020EF
:10055000E3DB010800000020EBDB01087FB50C4B5A
:100560001B785B0710D50B490B484B7A04930B7A29
:100570000393CB7902938B7901934B7900930B7999
:10058000CA78897803F06CFA07B05DF804FB00BF05
:100590005D00002000000020F1DB010830B5294D8E
:1005A000294C2B78012B87B04FF0000317D18DF821
:1005B0000430AB1C029305F1100303931835636AF2
:1005C0000495DB788DF8143006AB13E90F0008347E
:1005D00084E80F0001A80AF0B3FF07B030BD032282
:1005E00004F1280084F82820E3620AF043FE042383
:1005F00084F8283004F12800EB68E3620AF03AFE40
:10060000052384F8283004F1280005F12803E3626B
:1006100038350AF02FFE062304F1280084F828302C
:10062000E5620AF027FE012304F1280084F828304F
:1006300084F82C300AF01EFE63685B6907B0BDE8E1
:1006400030401847000000203C0900201FB501235E
:1006500001A88DF804300AF071FD9DF8080005B07E
:100660005DF804FBF0B587B004460E460BF0A6FA21
:100670000546002839D1207901A90AF0F3FC1C4A6B
:1006800088B192F854308DF808500495ADF81450A4
:100690008DF8163002A80BF02DF8003818BF012095
:1006A000404207B0F0BD67792579206892F954106F
:1006B0004EB98DF808608DF80C70ADF814500490A8
:1006C0008DF81610E6E792F84C208DF80C70012397
:1006D0008DF80830ADF8145004901AB1054B1B7812
:1006E0000133DBB28DF81730EAE74FF0FF30D8E77F
:1006F00000000020720A002030B585B005460024B5
:1007000001A88DF804400AF019FD9DF80800A842E0
:1007100002D025B1022D10D0204605B030BDE0B981
:1007200001A80AF0A7FD044610B14FF0FF34F3E72B
:100730000B4B5B689B699847EEE7041E18BF0124CA
:1007400001A864428DF808500AF094FD0028ECD10D
:10075000034B5B6828469B69EDE72C46DCE700BF4E
:100760003C090020014B1870704700BF00000020BA
:10077000014B1878704700BF00000020034B5870F1
:10078000431E584258410BF053B800BF00000020F0
:10079000014B5878704700BF000000200149082233
:1007A00007F089BB0200002001460822014807F03B
:1007B00082BB00BF020000200149082207F07BBB7A
:1007C0001000002001460822014807F074BB00BF5A
:1007D000100000200149102207F06DBB1800002016
:1007E00001461022014807F066BB00BF1800002038
:1007F000014BD868704700BF00000020014BD86053
:10080000704700BF000000200149102207F053BBD1
:100810003800002001461022014807F04CBB00BF01
:10082000380000200149102207F045BB28000020B5
:1008300001461022014807F03EBB00BF28000020FF
:10084000014B83F84C00704700000020014B93F8E7
:100850004C00704700000020014B93F94A0070479C
:1008600000000020014B83F84B007047000000207F
:10087000014B93F84B00704700000020014BB3F987
:100880004800704700000020014B83F85400704777
:1008900000000020014B93F9540070470000002035
:1008A00030B5A1B003F0BEF80028FBD0204CD4F83E
:1008B0000200D4F806106B4603C3D4E9040183E8B0
:1008C000030004F118030FCB04AD85E80F00E368C3
:1008D0008DF823301A0E8DF820201A0C8DF8212067
:1008E0001A0A04F128038DF822200FCB09AD383401
:1008F00085E80F0094E80F000DAD85E80F0072B693
:100900000C4803F089FD052003F05EFA09488022B7
:10091000694603F0B3FD683006D1074B1B785B07CF
:1009200002D5064803F09CF862B621B030BD00BF86
:100930000000002000E003085D00002023DC010827
:1009400030B5A1B003F06EF80028FBD06946154A17
:1009500015480B4612F8014B01F8014B8242F9D1C0
:1009600003CB124CC4F80200C4F80610DDE9020102
:1009700004F1100383E8030004AB0FCB04F1180566
:1009800085E80F00089B1BBAE36009AB0FCB04F1AD
:10099000280585E80F000DAB0FCB383484E80F0035
:1009A00021B030BD00E0030880E003080000002013
:1009B00030B5A5B003F036F80028FBD0B04C1123B9
:1009C0008DF8103094F834308DF8113094F82130CF
:1009D0008DF8123094F820308DF8133001A80223DE
:1009E0008DF804300AF0AAFB30B1A64B1B785807EB
:1009F00002D5A54803F034F89DF808308DF814307E
:100A000001A816238DF804300AF098FB30B19D4BF5
:100A10001B78590702D59C4803F022F89B4D9DF89E
:100A200008308DF8153095F854308DF816306B7805
:100A30008DF8173001A807238DF804300AF07EFBEB
:100A400030B1904B1B785A0702D58F4803F008F855
:100A50009DF808308DF818302B788DF8193001A8E2
:100A600000238DF804300AF069FB30B1854B1B7808
:100A70005B0702D5844802F0F3FF9DF808308DF83B
:100A80001A3095F84C308DF81B3001A80A238DF8E8
:100A900004300AF053FB30B17A4B1B78580702D56B
:100AA000794802F0DDFF029B8DF81F301A0E8DF899
:100AB0001C201A0C8DF81D201A0A94F835308DF878
:100AC0001E20012B40F02C81002384F8353001A832
:100AD0000A238DF804300AF031FB30B1694B1B78E2
:100AE000590702D5684802F0BBFF9DF80C308DF81D
:100AF000203001A810238DF804300AF01FFB30B11C
:100B0000604B1B785A0702D55F4802F0A9FF029B91
:100B10008DF822301A0A01A811238DF821208DF8B2
:100B200004300AF00BFB30B1564B1B785B0702D543
:100B3000554802F095FF029B8DF824301A0A01A84F
:100B400012238DF823208DF804300AF0F7FA30B123
:100B50004C4B1B78580702D54B4802F081FF029B93
:100B60008DF826301A0A01A813238DF825208DF858
:100B700004300AF0E3FA30B1424B1B78590702D532
:100B8000414802F06DFF029B8DF828301A0A01A837
:100B900003238DF827208DF804300AF0CFFA30B106
:100BA000384B1B785A0702D5374802F059FF029B91
:100BB0008DF82C301A0E8DF829201A0C8DF82A2069
:100BC0001A0A95F84B308DF83130A3698DF82B2037
:100BD0001A0E8DF836201A0C8DF837208DF8393022
:100BE0001A0A237F8DF83A30294B8DF838201B885C
:100BF0008DF844301A0A274B8DF843201B788DF866
:100C00004530254B1B788DF84630244B1B788DF8EA
:100C10004730234B1B788DF84830224B1B788DF8DA
:100C20004930214B1B788DF84B30204B1B888DF8B9
:100C30004D301A0A1E4B8DF84C201B788DF84E3023
:100C40001C4B1B788DF84F301B4B1B788DF85030A8
:100C50001A4B1B788DF85130194B1B888DF8533087
:100C60001A0A184B8DF852201B788DF85530164B08
:100C70001B788DF85630154B1B788DF8573027E0D0
:100C80003C0900205D00002035DC01080000002048
:100C90006C000020740A002039090020760A002028
:100CA000770A00208C090020780A00207C0A0020A6
:100CB000720A0020730A00207E0A00207F0A0020AA
:100CC0007A0A00202C0900202D0900202E0900207E
:100CD000174B1B788DF8583094F836308DF8593012
:100CE00094F837308DF85A30124B1B788DF85B3002
:100CF00072B6114803F090FB052003F065F80E482A
:100D0000802204A903F0BAFB683006D10B4B1B7894
:100D10005B0702D50A4802F0A3FE62B625B030BDDB
:100D20000B2301A88DF804300AF008FADDE600BFB5
:100D30002F090020750A002000F003085D00002044
:100D40004CDC0108F0B5A5B002F06CFE0028FBD029
:100D50008A4B8B4904AA13F8010B02F8010B8B4252
:100D6000F9D1884C9DF8113084F838309DF8123054
:100D700084F839309DF8133084F83A3002238DF826
:100D800004309DF81430804D003B18BF012301A8AA
:100D90008DF808300AF06EFA16238DF8043001A899
:100DA0009DF815308DF808300AF064FA9DF81700A8
:100DB0009DF8163085F85430431E584258416870EB
:100DC0000AF036FD07238DF804309DF81830003BFB
:100DD00018BF012301A88DF808300AF04BFA9DF8DE
:100DE00019305A1E534253412B7000238DF80430A2
:100DF00001A89DF81A308DF808300AF03BFA9DF8EA
:100E00001B30079E591E4B424B410A2736BA01A898
:100E100085F84C308DF8047002960AF02BFA8DF8A4
:100E2000047001A89DF820708DF80C700AF022FA69
:100E30000B2304F1280084F82830E66284F830702F
:100E40000AF018FA10238DF80430BDF821305BBA8F
:100E50009BB201A802930AF00DFA11238DF8043019
:100E6000BDF823305BBA9BB201A802930AF002FAE4
:100E700012238DF80430BDF825305BBA9BB201A86F
:100E800002930AF0F7F913238DF80430BDF82730E8
:100E90005BBA9BB201A802930AF0ECF903238DF828
:100EA0000430DDF8293001A81BBA02930AF0E2F9F8
:100EB0009DF8313085F84B30DDF83630334A1BBAB7
:100EC000A3619DF83A302377BDF843305BBA1380B5
:100ED0002F4B9DF845201A702E4B9DF846201A7016
:100EE0002D4B9DF847201A702C4B9DF848201A7006
:100EF0002B4B9DF849201A702A4B9DF84B201A70F5
:100F0000BDF84C30284A5BBA1380284B9DF84E2020
:100F10001A70274B9DF84F201A70264B9DF85020D1
:100F20001A70254B9DF851201A70BDF85230234A93
:100F30005BBA1380224B9DF855201A70214B9DF807
:100F400056201A70204B9DF857201A701F4B9DF8A1
:100F500058201A709DF859301D4A003B18BF0123D4
:100F600084F836309DF85A3084F837309DF85B307D
:100F7000003B18BF0123137025B0F0BD00F003083B
:100F800080F003083C090020000000206C000020D5
:100F9000740A002039090020760A0020770A002010
:100FA0008C090020780A00207C0A0020720A0020A8
:100FB000730A00207E0A00207F0A00207A0A00209F
:100FC0002C0900202D0900202E0900202F090020C7
:100FD000750A00202DE9F041874C884E6162A0B06F
:100FE0006060FFF7ADFCFFF7ADFE33785F0714D507
:100FF000834802F035FD33785D070ED5814802F055
:101000002FFD3378580708D57F4802F029FD337843
:10101000590702D57D4802F023FDFFF781FA12231C
:101020007C22002101A800930AF00EFF784B1B7868
:1010300063B394F8342094F838309A4205D194F888
:10104000212094F839309A427DD0802200216846D0
:101050000AF0FAFE12238DF8003002F0E3FC0028BB
:10106000FBD072B66A4803F0D7F9052002F0ACFE57
:1010700067488022694603F001FA683005D1337869
:101080005A0702D5634802F0EBFC62B6DFF8D08164
:10109000FFF764FA012388F800305F4BE3635F4B8E
:1010A00023645F4B5F49636463680522A1F10C0010
:1010B0001B68A36409F08CFE022384F82830636A5D
:1010C00059481B7884F82C300AF0D4F8072384F8A8
:1010D0002830636A54489B7884F82C3000250AF045
:1010E000C9F8514884F8285084F82C500AF0C2F806
:1010F000636A5B7888F85430454B1F78002F35D0F1
:10110000122F33D0132F5BD0FFF71CFE474B1A78FA
:101110000AB90A221A70464B1A880AB914221A8090
:10112000444B1A8812B94FF434621A80424B1A8821
:1011300012B94FF4B4621A80404B1A78002A49D190
:1011400001221A7046E094F8202094F83A309A422E
:101150009CD08022002168460AF076FE13238DF889
:10116000003002F05FFC0028FBD07AE7304A88F8B4
:10117000015014211180324A25771570314AA5613A
:1011800012211170294A0A2111702F4A15702F4A15
:101190001570284A4FF4346111802D4A07211170CF
:1011A0002C4A15702C4A02231570244A88F84B30BB
:1011B0000123137084F84C301F4B4FF4B4621A8033
:1011C000123FFFF7F5FBFFF7BDFD012F07D8002306
:1011D00084F84C3020B0BDE8F041FFF7DFB9337838
:1011E0005B0705D51D4820B0BDE8F04102F038BCD2
:1011F00020B0BDE8F08100BF3C0900205D00002068
:1012000061DC010879DC01088FDC0108ABDC010836
:1012100000F003084CDC0108110401086504010812
:101220001D04010884090020640900208C090020A5
:101230006C0000207C0A00207A0A00207E0A002030
:10124000740A0020760A0020770A0020780A00201D
:10125000720A0020730A00207F0A0020BCDC01080B
:101260000000002007B501A9007909F0FBFEB0FAE3
:1012700080F0400903B05DF804FB000070B5C0B019
:101280000E4611460022841AADF80820124A1D4667
:1012900018BF012403AB82F84C4018462A4601933C
:1012A00006F009FE01A88DF808508DF80960FFF7D7
:1012B000D9FF30B9094B1B785B0702D5084802F00B
:1012C000CFFB214601A8FFF7CDF900280CBF012074
:1012D000022040B070BD00BF000000205D00002073
:1012E000F8DC01080020704738B5094D09492C4643
:1012F00014F8043B5943204604F0A8FC204604F0AF
:1013000005FC054B01221A7000232B7638BD00BF67
:101310008C090020005C26055C00002008B5FFF762
:1013200027FA012804BF034B5876BDE8084002485D
:1013300004F05CBC8C090020A809002003480123AC
:1013400080F83030343004F051BC00BF8C090020EC
:1013500010B5044C04F1480004F048FC012384F863
:101360005C3010BD8C09002008B5074804F03EFC35
:10137000064800220D2103F06DF9BDE8084003483E
:1013800000220C2103F066B9EC09002000F40140B2
:1013900008B50A4804F02AFC094800220D2103F090
:1013A00059F9074800220E2103F054F9BDE808401E
:1013B000034800220C2103F04DB900BF000A0020B1
:1013C00000F4014010B50A4C63785B0704D5094B63
:1013D000195C094802F044FB4FF400732381074B6A
:1013E0000748002183F88810BDE81040FFF73AB99C
:1013F0005C00002041DD010827DD01088C09002088
:101400006000002010B50D4C44F2506104F18C00D6
:1014100004F01CFC04F18C0004F078FB94F8A0307C
:10142000012B03D094F8A130012B03D1BDE810406B
:1014300003F01CBA012384F8A23010BD8C090020EF
:1014400008B50020FFF758F9034B012283F8A420C8
:1014500083F8A32008BD00BF8C09002070B50020D0
:1014600088B003F021FB0121122003F04FFB404B19
:10147000019314223F4B0293002103A80AF0E4FCDD
:1014800002AA01A9002002F01DFC012002F052FC7A
:1014900002F09EFB4FF47A7002F07EFC142002F002
:1014A000CDFB0F21002002F0E5FB4FF4801002F08D
:1014B000D5FB012002F0AEFB012002F095FB03AC4E
:1014C00026460025012002F0EBFB0028FAD002F0AE
:1014D000F1FB0135EDB20A2D26F8020BF2D1002006
:1014E00002F082FB002002F095FBDDED027ADDEDDB
:1014F000015A9FED217ADFED214A9FED216A0023F9
:10150000F1EE677A34F8022B06EE902AF8EEE66ADE
:10151000B0EE675AA6EEA45A0133DBB20A2BC5EE31
:10152000256AA6EE867AEDD1F2EE046AC7EE267A37
:101530009FED147A67EE877AFCEEE77A17EE903A21
:1015400098B240F6E34398420ED840F664139842AE
:101550000CD9FE23A0F5166058434FF46173B0FB1D
:10156000F3F0C0B208B070BDFE20FBE70120F9E740
:101570006210983FD122DBBD000000009A99993992
:101580000AD7434000007A4413B50446684603F086
:1015900013FF009B23711A0EE2711A0CA2711A0A32
:1015A000019B62711A0EE2701A0CA2701A0A627024
:1015B000237002B010BD07B5684603F0FDFEDDE9FB
:1015C0000003584003B05DF804FB000010B5074C61
:1015D0000749201D04F092FA23780649201D59433B
:1015E00004F034FBBDE81040FFF77EBE8C090020FC
:1015F000E9120108005C26052DE9F04FC04DC14FEE
:10160000016802790123A9B00446407985F8A53024
:10161000FEF7AAFC7B78590708D5BB4802F020FAF0
:101620007B785A0702D5B94802F01AFADFF804832A
:10163000002621797B78F2B2914203F0040300F294
:10164000B4817BB1B24802F00BFA7B785B0709D515
:101650006179B04802F004FA7B785E0702D5AA48A7
:1016600002F0FEF994F80580A8F103095FFA89F306
:10167000922B00F2B7822368A74E1A78F12A40F025
:10168000B48122792420092A114600FB09FC28BFD5
:10169000092101390CF11100C9B230444FF0000E9C
:1016A0005FFA8EFA514500F28881092A40F08C8158
:1016B000242303FB096999F8223043F0020389F8D7
:1016C0002230964A022341460120FFF7D7FD637975
:1016D0002420033B00FB036393F82230072B40F0E8
:1016E000098123681B780F33DBB2022B40F20281A1
:1016F000DFF8649295F8A6C049464FF0FF324FF0EC
:10170000000E63795FFA82F8B8F1FF0FA3F10303CB
:1017100040F0238243434FF0010E16F803C001321C
:10172000212A01F10101ECD1BEF1000F01D085F8B1
:10173000A6C06179CB1E334441F2AC42985C38B903
:1017400001209854764A92F83F35034482F83F3599
:101750007B78580702D5734802F082F9724B08AAC9
:1017600003F1100E9246186859689446ACE80300DD
:10177000083373456246F6D16C4A1B78106851688D
:101780008CF8003006AB03C3694BDFF8D0B11868A2
:101790001B7904908DF814304FF000085046FCF788
:1017A0002FFD08F101035FFA88F8404500F2DB8164
:1017B000DFF8A8A14FF0000806A8FCF721FD08F10A
:1017C000010B5FFA88F8404500F2DA812223DFF846
:1017D00090B1DFF8888102937B785A0704D599F895
:1017E0000010544802F03CF919F8013B524A5348A2
:1017F000DFF84CA1042102F089F995F8C83050486F
:101800005A46042102F082F995F8C9304D485A46EB
:10181000042102F07BF9002350460393FCF7F0FC0F
:10182000039B5A1CDBB28342C0F0B58195F8CA1005
:10183000DFF810A1404603F0D3FD00234148039395
:10184000FCF7DEFC039B5A1CDBB2984200F2AD8130
:1018500095F8CA10404603F0C3FD384A00231360D0
:1018600093809371AAF800308AF80230029B013B02
:1018700013F0FF030293AFD17B785B0702D53248A8
:1018800002F0EEF8DFF8D4904FF0000804A8FCF75F
:10189000B7FC08F1010A5FFA88F8404500F28F8131
:1018A00063792A48DFF858A0DFF8B090033B242280
:1018B00002FB0366102196F92330254A02F026F92F
:1018C00000260AF1D2084046FCF79AFC06F1010B0B
:1018D000F6B2B04200F27E811C48102200210AF0CC
:1018E000B3FA9AF8E2302BB963798AF8E33001232E
:1018F0008AF8E2301748C82104F0A8F932E000BFA6
:101900008C0900205C00002045DD010877DD01081E
:101910008BDD01089BDD0108CE0A00206800002055
:10192000CE1A0020ABDD01081ADE01082BDE01080B
:1019300033DE010884DD0108BFDD0108540A002000
:10194000580A00205B0A002035DE01085E0A0020EC
:10195000C5DD0108EC090020320A0020000001402A
:10196000C6D40108BD4801220D2102F073FEBB4818
:1019700001220C2102F06EFEB94804F0C7F87B7812
:10198000580702D5B74802F06BF823681A78332A53
:1019900008D81F2A00F28D81042A00F0B981052A97
:1019A00000F0E38129B0BDE8F08F23B12368404601
:1019B000995C02F055F801363BE613F801AF00F8E8
:1019C00001AB0EF1010E6BE6501EC0B2082800F10B
:1019D00011006044C2F10902D2B24FF0000188BF89
:1019E000002230440AF030FA62E6F22A34D1227939
:1019F0002420112A114600FB09FC28BF11210139BE
:101A00000CF10100C9B230444FF0000E5FFA8EFABB
:101A1000514509D8112A0ED1242303FB096999F8ED
:101A2000223043F004034AE613F801AF00F801AB9B
:101A30000EF1010EEAE7501EC0B2102800F10100BD
:101A40006044C2F11102D2B24FF0000188BF0022FF
:101A500030440AF0F9F9DFE7F32A4FF024003AD1D5
:101A600000FB096000231A4601464FF0010E5FFAA1
:101A700083FC13BB81F800E04B744B764B70013351
:101A8000102B00F10100F2D1242303FB0963002293
:101A900083F8222083F82320B14441F2AC4319F8A3
:101AA000031000293FF40DAE09F803206E4A92F8A6
:101AB0003F35013B82F83F3503E6BCF1070F03D801
:101AC000427442764270DAE7BCF1080FFAD181F82D
:101AD00021204A72D3E700FB09F0321892F822A0C5
:101AE0000AF00602062A02D0604A0223EBE52279B8
:101AF0000A2A114628BF0A21013900F1190CC9B27E
:101B0000B4444FF0000E5FFA8EF841450DD80A2A12
:101B100012D1242303FB09694AF0010A89F822A0A3
:101B200005F080FA89F82300D1E513F8018F0CF84D
:101B3000018B0EF1010EE6E7531EDBB2092B03F118
:101B400019031844C2F10A02D2B24FF0000188BF53
:101B5000002230440AF078F9DBE700FB036313440A
:101B60005B780B70DBE5029308F1A0030DEB030833
:101B7000584618F8801C03F033FC029B98460DE68B
:101B800008F1A0030DEB0308504618F8881C03F079
:101B900027FCD84610E62B44404693F8CC1003921D
:101BA00003F01EFC039A134636E62B44404693F896
:101BB000CF10039203F014FC039A13463EE608F19B
:101BC000A0030DEB0308484618F8901C03F008FC2E
:101BD000D0465BE65644484696F8D21003F000FC27
:101BE0005E4670E6B8F1960F48D10022204B1646AB
:101BF0004FF0010E184600215FFA81FC21BB83F8EB
:101C000000E05974597659700131102900F1010032
:101C1000F2D10132932A83F8226083F8236003F122
:101C20002403E7D1002113480AF00EF90E4B124AA3
:101C300083F83F65962102230120FFF71FFB59E639
:101C4000467446764670DFE7BCF1070FF8D9BCF161
:101C5000080FF7D183F821605E72D5E700F40140E8
:101C6000EC090020D0DD0108CE1A00206A00002017
:101C7000CE0A00207A1F002068000020B8F1970FDC
:101C80007FF438AE41469848DFF85C8203F0A8FB49
:101C900000262279B3B29A4204D89348972103F0E0
:101CA0009FFB27E623684046995D03F099FB0136C8
:101CB000EFE7203A132A3FF675AE01A151F822F062
:101CC000DD1D0108FD1D0108311E0108A5190108CF
:101CD000A5190108A5190108871E01089F1E010802
:101CE000AF1E0108D31E0108A5190108A519010896
:101CF000A5190108A5190108A5190108A5190108C8
:101D0000F51E0108A5190108951F01080520010805
:101D10002279022A7FF446AE5B78FF2B03D10123A0
:101D200085F8E4303EE6FE2B7FF43CAE00217C22B9
:101D300009A808910AF088F812238DF8203072B6AD
:101D40006A4802F069FB052002F03EF867488022ED
:101D500008A902F093FB683005D17B78590702D5BA
:101D6000634801F07DFE62B6D9E72179012204299A
:101D700085F8E5201ED1587890423FF613AE0ED17B
:101D8000FEF75EFD23689B7885F8E6302368DB78F4
:101D900085F8E73029B0BDE8F04FFEF709BE9B7823
:101DA00085F8E63023680020DB7885F8E730FEF719
:101DB00047FDEFE702290CD1587840B9FEF740FD06
:101DC000002385F8E730072385F8E630E2E7104680
:101DD000F4E7002385F8E5302371E3E52279022A50
:101DE0007FF4E0AD587801283FF6DCAD18BF002045
:101DF000FEF7B8FC012385F8E430CBE72279022A0C
:101E000006D15B78042B3FF6CDAD85F8E830C1E70D
:101E1000032A7FF4C7AD5A78002A7FF4C3AD9B78BC
:101E2000012B3FF6BFAD03F0010385F8E930B1E7C0
:101E30002279022A0BD15B78012B7FF4B3AD08A87D
:101E40008DF820208DF8243009F014FAA2E7042A36
:101E50007FF4A8AD5A78002A7FF4A4AD9D788DF860
:101E60002420022308A88DF8203009F003FA052D5C
:101E700028BF052568B2FEF707FD2368DB78FF2B36
:101E800088D01622DBE72279032A7FF48BADB3F8E2
:101E900001305ABA002B3FF485AD3A827AE72279B5
:101EA000022A7FF47FAD5B7885F8EA3072E7227909
:101EB000022A7FF477AD5B7885F8EB30012B05D9EA
:101EC000012385F8EB30FFF781FB63E77FF462AF16
:101ED000F9E72279022A7FF465AD5B780BB12B70AC
:101EE00058E70A23FBE700BF0000014000F00308A9
:101EF0004CDC0108227904AE4FF00008062ACDF828
:101F00001080C6F804807FF44DADD3F801405B79B2
:101F10004FF47A7253430DF118091B124846ADF87D
:101F2000143003F04BFD444B5A68009299E80600C8
:101F30001B6808A803F0EBFC24BA099B00930494E7
:101F400096E80600089B304603F0C6FC3B4B049A1B
:101F50009A4215D996E8030003F0F4FC484603F0D2
:101F60002DFD01232B767B78069987F800805A0790
:101F70007FF518AD324829B0BDE8F04F01F070BDD3
:101F80007B785B077FF50EAD2E4829B0BDE8F04F9A
:101F900001F066BD2279062A7FF404AD5B78012B3F
:101FA00098BF85F8EC3023685A8851BA0AB1A5F871
:101FB000EE109B885ABA0BB1A5F8F02095F8EC30DA
:101FC00033B9214803F012FE204803F00FFEE1E68A
:101FD000B5F8F0101C484EF66024614303F036FE5D
:101FE000194803F093FDFEF731FC00287FF4D2AED0
:101FF000B5F8EE101548614303F028FE134803F0CE
:1020000085FDC7E62279032A7FF4CCAC5B7885F89E
:10201000F2302268927885F8F32043B9012385F8DD
:10202000F230012A84BF012385F8F330B2E60F2B8A
:10203000F7D90F23F3E700BFA82900200050136051
:10204000EFDD010809DE0108A8090020C009002011
:10205000F0B5022289B005460C212248224C02F03C
:1020600099FB01221146214802F094FB204602F020
:10207000A3FC01211B2002F049FD4FF4807741F6BB
:10208000034301A9204602930195ADF80C7002F0BC
:1020900053FC01222046022102F00EFC20460021C2
:1020A00002F01FFC0121204602F008FC104B4022E8
:1020B00083F809234FF400721A6004A8A4F50054B1
:1020C00003F0A1F9012604A920468DF81C60ADF8A3
:1020D0001A70049503F0B4F93146204603F09FF9D5
:1020E00009B0F0BD00FC01400050004000F4014088
:1020F00000E100E01FB5044601221748082102F064
:1021000049FB01220921144802F044FB684603F010
:102110007AF90094114C6023ADF804304FF040720E
:102120000023694620468DF806308DF80C30029267
:1021300003F086F920460122102103F05CF9084BD8
:10214000402283F808234FF480721A600121204650
:1021500003F065F904B010BD00F401400000014037
:1021600000E100E0012138B5084602F04FFF0120F0
:1021700002F086FC0121052002F0C8FC642001F079
:1021800023FE012002F032FB0C2002F055FB40F64A
:10219000FF7002F05DFB02F079FB0121022002F0EA
:1021A00035FF01210D2002F0B1FC0121202002F0B9
:1021B000ADFC0121212002F0A9FC0121222002F026
:1021C000A5FC01211B2002F0A1FC01211F2002F02F
:1021D0009DFC01211D2002F099FC0121412002F00B
:1021E00095FC0121032002F091FC0121002002F066
:1021F0008DFC01210E2002F089FC0121402002F01B
:1022000085FC0121312002F081FC4FF08045012145
:10221000302002F07BFC642001F0D6FD2C6A14F023
:10222000240415D105F060FB0F4B104A1C60EE2111
:10223000C3F80140C3F80240C3F803405C60C3F830
:10224000054003F5807343F8011B9342FBD138BD71
:10225000012002F0B1FF064B02221A602B6A43F004
:1022600024032B62F3E700BF00F0002000FE0020F3
:1022700000E100E0F8B50546034600F5A5500C3036
:102280000024012719460022D6B2E2B91F705A7401
:102290005A765A700132102A01F10101F4D183F803
:1022A000224083F8234024339842EBD105F5805532
:1022B0009322002109F0C8FD85F83F45F8BD4C7414
:1022C0004C764C70E6E7072EF9D9082EF9D183F841
:1022D00021405C72DEE700002DE9F04F87B0FFF788
:1022E00041FF05F0ADF84FF41650FFF7B1FE4FF483
:1022F0001650FFF7FFFEFEF77FF803F049F9AC49EF
:10230000AC4803F0FBFBAB4844F2506103F09EFC89
:10231000A84803F0FBFBA84B1B7833B1A74B5B78B5
:102320005A0702D5A64801F09BFBA649A64E081DF8
:10233000FEF750FEA549A64803F0E0FBA549A648D4
:1023400003F0DCFBA549A64803F0D8FBA548FFF73E
:1023500091FF9A4DA44BA54CD3F86480B8F1000FBF
:1023600000D0C047FDF72CFF94F8F43013B30027DA
:102370009F4884F8F4703A460D2102F06BF99C48AE
:102380003A460E2102F066F93A4699480C2102F0CD
:1023900061F99849984803F0B1FB974841F28831B8
:1023A00003F054FC924801220E2102F053F99248A6
:1023B00003F0ACFB94F8A330BBB16B785B0702D59C
:1023C0008E4801F04DFB002384F8F530FEF7D0F97C
:1023D000012801D107F0AEFE894803F007FC002375
:1023E00084F8A330012384F8F43094F8F630B3B3C2
:1023F00094F8EB300022012B84F8F62004D1FFF78B
:10240000E5F8052001F0E0FC94F8EC30012B26D132
:10241000FEF71CFA88B96D496D4803F06FFBB4F8FC
:10242000EE306B484EF66021594303F00FFC6848CC
:1024300003F06CFB052001F0C7FC6649664803F019
:102440005DFBB4F8F03064484EF66021594303F068
:10245000FDFB614803F05AFB052001F0B5FC94F840
:10246000EB30012B1BD194F8F730C3B1654B1F68DB
:1024700017F0110713D104230DEB03008DF804307E
:1024800084F8887009F05CF86B6884F8F7705E482F
:102490001F70394640F201432B81FEF7E3F894F8B0
:1024A000E430012B40F0608100274FF4FA7084F88B
:1024B000887001F089FC6B68534811221A70394604
:1024C00040F201432B81FEF7CDF894F8E43001335C
:1024D00084F8E43094F8F83023B194F8E820032A23
:1024E00000F0AE8194F8F92042B194F8E820012A76
:1024F00004D194F8A520002A40F0A28194F8FA2093
:10250000002A00F0958194F8E820022A40F08D819D
:1025100094F8A530002B40F0938194F85C3063B1BF
:10252000384B1B6813F0110307D184F8883084F806
:10253000303084F85C30FEF731F894F8FB30BBB1F2
:10254000002384F8FB30012384F8F5302B8A0BB983
:1025500014232B822D492A4803F0D0FA2B8A2848CD
:102560004EF66021594303F071FB254803F0CEFA83
:10257000637E002B4ED094F8FC30002B4AD1214BC7
:102580001B6813F0110345D10122214884F8F5207E
:1025900084F8883084F8303003F028FB0E4803F0CC
:1025A00025FB0B4803F022FBFDF7F8FF32E000BFEC
:1025B00005140108180A00202B0900205C000020E7
:1025C00038DE0108740000208D0A00203D13010848
:1025D000C00900201D130108A80900206913010883
:1025E000EC090020CE0A00207CCD01088C090020D7
:1025F00000F4014091130108000A00204BDE01089D
:10260000D409002010290020600000205113010887
:102610009009002094F8FD30012B29D1FEF716F81F
:10262000012825D194F8EC30012B21D1B4F8F01019
:10263000F1B1B4F8EE30DBB194F8FC30C3B94EF62A
:1026400060278C4884F8FD30794384F8303003F0FB
:10265000FDFA884803F05AFAFEF7F8F840B9B4F8E2
:10266000EE108548794303F0F1FA834803F04EFAFF
:1026700094F88830042B09D994F8FC3033B96420DD
:1026800084F8883001F0A0FB02F086FE94F8A230B6
:10269000DBB1002384F8A23002F0E8F894F8FE30B1
:1026A00003F0FF028BB994F8FF300133DBB284F8FA
:1026B000FF3094F8FF30012B07D9704B84F8FF20CE
:1026C00019886F4B19806F4B1A7001F0ABF9002815
:1026D00055D0002384F8FE3094F80031012B7FF4AC
:1026E0003DAE6B78580702D5674801F0B9F9DFF8BD
:1026F000C08100276B78590703D5F15D404601F092
:10270000AFF90137202FF5D16B785A0703D55F4811
:10271000314601F0A5F95E492022304609F0E6FB7A
:1027200080BB01A8FEF73AF8DFF888910DF10408A4
:10273000082718F8011B4846013F02F051FE17F028
:10274000FF07F6D120220021304609F07DFB00234F
:1027500084F8213184F800316B785B077FF5FAAD9E
:102760004C4801F07DF9F4E5022B7FF4B3AE4A4BFF
:102770001B68DF073FF5AEAE02F00EFEAAE684F856
:10278000FE00A9E745493046FBF7BEFB074658B9AE
:10279000434A022394F8E3100120FEF76FFD84F80A
:1027A000E37084F8E270CDE73E493046FBF7ACFBBE
:1027B000074610B93C4A0223ECE73046FBF720FD00
:1027C0000128BFD9204490F8FF30052BBAD190F8EA
:1027D0000031013B012BB5D8DFF8DCA0DFF8DC903D
:1027E0000327AAF1020B3046FBF70AFD314680466B
:1027F000821E484609F07AFB48B9A04498F80001C7
:1028000001280BD102235A463946FEF737FD01371E
:10281000FFB2962F09F12409E5D193E70228F6D1FA
:102820000346524639460120EFE723B994F8A53014
:10283000002B3FF472AE94F8E830042B7FF46DAEB9
:10284000154B196811F011017FF467AE6B6884F8BD
:10285000881084F8F81084F8F91084F8FA1084F8D5
:10286000A5101248197040F201432B81FDF7FAFEC2
:1028700053E600BFA8090020C00900200A2100205B
:1028800008210020A425002054DE010880DE010874
:1028900094000020C1DE010810290020ADDE0108EF
:1028A00068000020B6DE01089E00002060000020C5
:1028B0007ADE010800000140A2000020CF0A0020BB
:1028C0007047FEE7FEE7FEE7FEE770477047704798
:1028D000704704F095BB05F007B9704710B509487B
:1028E000022102F007F860B1064802F01CF802214C
:1028F0000446044802F007F82046BDE81040FDF702
:1029000043BB10BD00500040F0B488B9164B1A7894
:102910002AB1164B134413F8013C052B08D0144B75
:102920001B785B071AD5F0BC1248002101F098B85B
:10293000114D2B78012B11D00B490C4C0A780A2829
:1029400002F10103DBB20BD1561EA75D0D2F07D19B
:1029500032B100220B70A25501232B70F0BC7047DE
:10296000A0540B70FAE700BFAD0A00208D0A0020CA
:102970005D000020F7DE01088C0A002010B50E482B
:10298000102102F055FD012814D10B4802F02DFD55
:102990000A4B1B785B07044603D50146084801F043
:1029A0005FF82046FFF7B0FFBDE810400248102155
:1029B00002F044BD10BD00BF000001405D000020DA
:1029C0001BDF010801F05EBB01F08EBB0148052151
:1029D00001F0A2BE00F801409A4238BF8854704707
:1029E0007047000080B1094A138851880133C3F34E
:1029F00009038B4208D072B61388D1180133C3F390
:102A000009030871138062B6704700BF08210020D7
:102A10002DE9F84F99460D9B15469A07DDE90B47BE
:102A200006468B4622D02A460A9901EB0408144434
:102A3000A2421FD10D9B9B0705D5A2EB0508474578
:102A400005EB08041FD82046BDE8F88F4B465946D1
:102A50002020B04708F10108B8450AEB0802F5D379
:102A60003A1BBC4288BF00222A44DDE7A046A5EB02
:102A7000040AF1E702F1010A18F8010D4B46594624
:102A8000B0475246D4E74B46224659462020B0472D
:102A900008F10108D3E72DE9F047DDE90D7616F0DE
:102AA000020FDDE90854DDE90BC89DF828E01FD1CD
:102AB00006F001094FB1B9F1000F06D0BEF1000FC9
:102AC00002D116F00C0F00D0013F4FF0300A04E0A5
:102AD000202C04D005F804A00134A045F8D84FF00C
:102AE000300AB9F1000F03D0BC4201D21F2C34D9F7
:102AF00016F0100F1FD016F4806F33D194B34445F5
