:020000040800F2
:10D0000000F000204D4801083102010833020108F8
:10D01000350201083702010839020108000000004A
:10D020000000000000000000000000003B020108BA
:10D0300000000000000000003D0201083F0201085E
:10D0400095480108470201089548010895480108DC
:10D0500095480108954801084B02010895480108C8
:10D06000954801084D0201089548010895480108B6
:10D070009548010895480108954801089548010818
:10D080009548010895480108954801087D02010866
:10D0900095480108430201088102010895480108EA
:10D0A00095480108954801089548010895480108E8
:10D0B000954801089548010895480108790201083A
:10D0C0009548010895480108410201089548010862
:04D0D0009548010876
:10D1000010B5054C237833B9044B13B10448AFF381
:10D1100000800123237010BD48040020000000009F
:10D120006C50010808B5034B1BB103490348AFF32A
:10D13000008008BD000000004C0400206C50010875
:10D1400081F0004102E000BF83F0004330B54FEAB8
:10D1500041044FEA430594EA050F08BF90EA020F25
:10D160001FBF54EA000C55EA020C7FEA645C7FEAB8
:10D17000655C00F0E2804FEA5454D4EB5555B8BFDB
:10D180006D420CDD2C4480EA020281EA030382EA4C
:10D19000000083EA010180EA020281EA0303362DDE
:10D1A00088BF30BD11F0004F4FEA01314FF4801CB1
:10D1B0004CEA113102D0404261EB410113F0004FC3
:10D1C0004FEA03334CEA133302D0524263EB43037A
:10D1D00094EA050F00F0A780A4F10104D5F1200E18
:10D1E0000DDB02FA0EFC22FA05F2801841F1000173
:10D1F00003FA0EF2801843FA05F359410EE0A5F147
:10D2000020050EF1200E012A03FA0EFC28BF4CF077
:10D21000020C43FA05F3C01851EBE37101F000452D
:10D2200007D54FF0000EDCF1000C7EEB00006EEB3A
:10D230000101B1F5801F1BD3B1F5001F0CD34908C4
:10D240005FEA30004FEA3C0C04F101044FEA44521B
:10D2500012F5800F80F09A80BCF1004F08BF5FEAA2
:10D26000500C50F1000041EB045141EA050130BD82
:10D270005FEA4C0C404141EB0101013C28BFB1F594
:10D28000801FE9D291F0000F04BF01460020B1FADF
:10D2900081F308BF2033A3F10B03B3F120020CDAB2
:10D2A0000C3208DD02F1140CC2F10C0201FA0CF090
:10D2B00021FA02F10CE002F11402D8BFC2F1200CF5
:10D2C00001FA02F120FA0CFCDCBF41EA0C019040AB
:10D2D000E41AA2BF01EB0451294330BD6FEA0404F4
:10D2E0001F3C1CDA0C340EDC04F11404C4F12002DF
:10D2F00020FA04F001FA02F340EA030021FA04F3F1
:10D3000045EA030130BDC4F10C04C4F1200220FA47
:10D3100002F001FA04F340EA0300294630BD21FA85
:10D3200004F0294630BD94F0000F83F4801306BF4B
:10D3300081F480110134013D4EE77FEA645C18BF3F
:10D340007FEA655C29D094EA050F08BF90EA020FD6
:10D3500005D054EA000C04BF1946104630BD91EACE
:10D36000030F1EBF0021002030BD5FEA545C05D1D1
:10D370004000494128BF41F0004130BD14F5800410
:10D380003CBF01F5801130BD01F0004545F0FE4184
:10D3900041F470014FF0000030BD7FEA645C1ABFB9
:10D3A000194610467FEA655C1CBF0B46024650EAF0
:10D3B000013406BF52EA033591EA030F41F400211C
:10D3C00030BD00BF90F0000F04BF0021704730B5A2
:10D3D0004FF4806404F132044FF000054FF0000177
:10D3E00050E700BF90F0000F04BF0021704730B538
:10D3F0004FF4806404F1320410F0004548BF40420D
:10D400004FF000013EE700BF42004FEAE2014FEA61
:10D4100031014FEA02701FBF12F07F4393F07F4F3C
:10D4200081F06051704732F07F4208BF704793F03F
:10D430007F4F04BF41F40021704730B54FF4607452
:10D4400001F0004521F000411CE700BF50EA010255
:10D4500008BF704730B54FF000050AE050EA0102FE
:10D4600008BF704730B511F0004502D5404261EB6E
:10D4700041014FF4806404F132045FEA915C3FF4AF
:10D48000D8AE4FF003025FEADC0C18BF03325FEA4C
:10D49000DC0C18BF033202EBDC02C2F1200300FAFD
:10D4A00003FC20FA02F001FA03FE40EA0E0021FA22
:10D4B00002F11444BDE600BF70B54FF0FF0C4CF410
:10D4C000E06C1CEA11541DBF1CEA135594EA0C0FC2
:10D4D00095EA0C0F00F0DEF82C4481EA030621EAFD
:10D4E0004C5123EA4C5350EA013518BF52EA033538
:10D4F00041F4801143F4801338D0A0FB02CE4FF0EA
:10D500000005E1FB02E506F00042E0FB03E54FF019
:10D510000006E1FB03569CF0000F18BF4EF0010E11
:10D52000A4F1FF04B6F5007F64F5407404D25FEA0D
:10D530004E0E6D4146EB060642EAC62141EA5551C0
:10D540004FEAC52040EA5E504FEACE2EB4F1FD0C02
:10D5500088BFBCF5E06F1ED8BEF1004F08BF5FEA80
:10D56000500E50F1000041EB045170BD06F0004632
:10D5700046EA010140EA020081EA0301B4EB5C04DF
:10D58000C2BFD4EB0C0541EA045170BD41F48011D7
:10D590004FF0000E013C00F3AB8014F1360FDEBFFC
:10D5A000002001F0004170BDC4F10004203C35DAD8
:10D5B0000C341BDC04F11404C4F1200500FA05F35B
:10D5C00020FA04F001FA05F240EA020001F00042FC
:10D5D00021F0004110EBD37021FA04F642EB060172
:10D5E0005EEA430E08BF20EAD37070BDC4F10C049C
:10D5F000C4F1200500FA04F320FA05F001FA04F260
:10D6000040EA020001F0004110EBD37041F100014B
:10D610005EEA430E08BF20EAD37070BDC4F1200556
:10D6200000FA05F24EEA020E20FA04F301FA05F2BE
:10D6300043EA020321FA04F001F0004121FA04F266
:10D6400020EA020000EBD3705EEA430E08BF20EA36
:10D65000D37070BD94F0000F0FD101F00046400070
:10D6600041EB010111F4801F08BF013CF7D041EAF2
:10D67000060195F0000F18BF704703F000465200F6
:10D6800043EB030313F4801F08BF013DF7D043EAC7
:10D690000603704794EA0C0F0CEA135518BF95EA7D
:10D6A0000C0F0CD050EA410618BF52EA4306D1D104
:10D6B00081EA030101F000414FF0000070BD50EA23
:10D6C000410606BF1046194652EA430619D094EAAD
:10D6D0000C0F02D150EA013613D195EA0C0F05D197
:10D6E00052EA03361CBF104619460AD181EA0301EB
:10D6F00001F0004141F0FE4141F470014FF00000A3
:10D7000070BD41F0FE4141F4780170BD70B54FF03D
:10D71000FF0C4CF4E06C1CEA11541DBF1CEA1355BD
:10D7200094EA0C0F95EA0C0F00F0A7F8A4EB05049F
:10D7300081EA030E52EA03354FEA013100F0888096
:10D740004FEA03334FF0805545EA131343EA12635F
:10D750004FEA022245EA111545EA10654FEA002614
:10D760000EF000419D4208BF964244F1FD0404F5CD
:10D77000407402D25B084FEA3202B61A65EB030529
:10D780005B084FEA32024FF480104FF4002CB6EBE6
:10D79000020E75EB030E22BFB61A754640EA0C0066
:10D7A0005B084FEA3202B6EB020E75EB030E22BFA6
:10D7B000B61A754640EA5C005B084FEA3202B6EBE7
:10D7C000020E75EB030E22BFB61A754640EA9C00A6
:10D7D0005B084FEA3202B6EB020E75EB030E22BF76
:10D7E000B61A754640EADC0055EA060E18D04FEA34
:10D7F000051545EA16754FEA06164FEAC30343EAD4
:10D8000052734FEAC2025FEA1C1CC0D111F4801FA0
:10D810000BD141EA00014FF000004FF0004CB6E799
:10D8200011F4801F04BF01430020B4F1FD0C88BF38
:10D83000BCF5E06F3FF6AFAEB5EB030C04BFB6EB43
:10D84000020C5FEA500C50F1000041EB045170BD36
:10D850000EF0004E4EEA113114EB5C04C2BFD4EB63
:10D860000C0541EA045170BD41F480114FF0000EE7
:10D87000013C90E645EA060E8DE60CEA135594EA63
:10D880000C0F08BF95EA0C0F3FF43BAF94EA0C0F66
:10D890000AD150EA01347FF434AF95EA0C0F7FF4DB
:10D8A00025AF104619462CE795EA0C0F06D152EA2F
:10D8B00003353FF4FDAE1046194622E750EA410613
:10D8C00018BF52EA43067FF4C5AE50EA41047FF424
:10D8D0000DAF52EA43057FF4EBAE12E74FF0FF3C89
:10D8E00006E000BF4FF0010C02E000BF4FF0010C5A
:10D8F0004DF804CD4FEA410C7FEA6C5C4FEA430CD3
:10D9000018BF7FEA6C5C1BD001B050EA410C0CBF21
:10D9100052EA430C91EA030F02BF90EA020F002083
:10D92000704710F1000F91EA030F58BF994208BFEA
:10D9300090422CBFD8176FEAE37040F001007047A7
:10D940004FEA410C7FEA6C5C02D150EA013C07D1FE
:10D950004FEA430C7FEA6C5CD6D152EA033CD3D049
:10D960005DF8040B704700BF8446104662468C4643
:10D970001946634600E000BF01B5FFF7B7FF002876
:10D9800048BF10F1000F01BD4DF808EDFFF7F4FF9F
:10D990000CBF012000205DF808FB00BF4DF808ED2A
:10D9A000FFF7EAFF34BF012000205DF808FB00BF4D
:10D9B0004DF808EDFFF7E0FF94BF012000205DF86F
:10D9C00008FB00BF4DF808EDFFF7CEFF94BF012024
:10D9D00000205DF808FB00BF4DF808EDFFF7C4FF1D
:10D9E00034BF012000205DF808FB00BF4FEA410270
:10D9F00012F5001215D211D56FF47873B3EB6252A1
:10DA000012D94FEAC12343F0004343EA505311F0C7
:10DA1000004F23FA02F018BF404270474FF0000059
:10DA2000704750EA013005D111F0004008BF6FF097
:10DA3000004070474FF00000704700BF4A0011D20D
:10DA400012F5001211D20DD56FF47873B3EB625258
:10DA50000ED44FEAC12343F0004343EA505323FA64
:10DA600002F070474FF00000704750EA013002D1D9
:10DA70004FF0FF3070474FF00000704753B94AB97C
:10DA8000002908BF00281CBF4FF0FF314FF0FF30C6
:10DA900000F092B9ADF1080C6DE904CE00F024F865
:10DAA000DDF804E0DDE9022304B07047D0B50C4B8B
:10DAB000002206460F46FFF7FFFCFFF7BFFF0446B4
:10DAC000FFF780FC074B0022FFF7F6FC02460B46EF
:10DAD00030463946FFF738FBFFF7B0FF2146D0BD8F
:10DAE0000000F03D0000F0412DE9F047089E0D4692
:10DAF00004468846002B4DD18A42944668D9B2FA32
:10DB000082F252B101FA02F3C2F1200120FA01F1CE
:10DB10000CFA02FC41EA030894404FEA1C45210C30
:10DB2000B8FBF5FE1FFA8CF705FB1E8341EA0343A1
:10DB30000EFB07F199420BD91CEB03030EF1FF30EA
:10DB400080F01E81994240F21B81AEF1020E6344C7
:10DB50005B1AA4B2B3FBF5F005FB103344EA0344AF
:10DB600000FB07F7A7420AD91CEB040400F1FF33BE
:10DB700080F00881A74240F2058164440238E41B2A
:10DB800040EA0E4000211EB1D4400023C6E9004304
:10DB9000BDE8F0878B4208D9002E00F0EE8000210E
:10DBA000C6E900050846BDE8F087B3FA83F100290D
:10DBB0004AD1AB4202D3824200F2F980841A65EB6B
:10DBC000030301209846002EE2D0C6E90048DFE7B3
:10DBD00002B9FFDEB2FA82F2002A40F09180A1EB96
:10DBE0000C054FEA1C471FFA8CFE0121B5FBF7F329
:10DBF00007FB1350250C45EA00450EFB03F0A84235
:10DC000008D91CEB050503F1FF3802D2A84200F247
:10DC1000CB8043462D1AA4B2B5FBF7F007FB105595
:10DC200044EA05440EFB00FEA64508D91CEB04049B
:10DC300000F1FF3502D2A64500F2BB802846A4EBD6
:10DC40000E0440EA03409EE7C1F120078B4022FA10
:10DC500007FC4CEA030C20FA07F405FA01F31C4315
:10DC6000FD404FEA1C4900FA01F3B5FBF9F8200C1E
:10DC70001FFA8CFE09FB185540EA054508FB0EF01B
:10DC8000A84202FA01F20BD91CEB050508F1FF3A94
:10DC900080F08880A84240F28580A8F1020865449F
:10DCA0002D1AA4B2B5FBF9F009FB105544EA05455D
:10DCB00000FB0EFEAE4508D91CEB050500F1FF3454
:10DCC0006CD2AE456AD90238654440EA0840A0FBF0
:10DCD0000294A5EB0E05A542C846A64656D353D0DE
:10DCE0005EB1B3EB080265EB0E0505FA07F722FA01
:10DCF00001F3CD401F43C6E900750021BDE8F08760
:10DD0000C2F1200320FA03F10CFA02FC25FA03F316
:10DD100095400D434FEA1C471FFA8CFEB3FBF7F109
:10DD200007FB11302B0C43EA004301FB0EF0984235
:10DD300004FA02F408D91CEB030301F1FF382FD2D7
:10DD400098422DD9023963441B1AADB2B3FBF7F0E8
:10DD500007FB103345EA034500FB0EF3AB4208D93D
:10DD60001CEB050500F1FF3816D2AB4214D902387E
:10DD70006544ED1A40EA014138E73146304607E78D
:10DD80008646E5E61846FAE64B45A9D2B9EB020805
:10DD900064EB0C0E0138A3E74046EAE7204694E71F
:10DDA0004146D1E7D0467BE7023B654432E708466F
:10DDB00009E76444023842E7704700BF844641EAFD
:10DDC000000313F003036DD1403A41D351F8043BF3
:10DDD00040F8043B51F8043B40F8043B51F8043B45
:10DDE00040F8043B51F8043B40F8043B51F8043B35
:10DDF00040F8043B51F8043B40F8043B51F8043B25
:10DE000040F8043B51F8043B40F8043B51F8043B14
:10DE100040F8043B51F8043B40F8043B51F8043B04
:10DE200040F8043B51F8043B40F8043B51F8043BF4
:10DE300040F8043B51F8043B40F8043B51F8043BE4
:10DE400040F8043B51F8043B40F8043B403ABDD253
:10DE5000303211D351F8043B40F8043B51F8043BF5
:10DE600040F8043B51F8043B40F8043B51F8043BB4
:10DE700040F8043B103AEDD20C3205D351F8043B84
:10DE800040F8043B043AF9D2043208D0D2071CBF50
:10DE900011F8013B00F8013B01D30B880380604679
:10DEA000704700BF082A13D38B078DD010F00303EF
:10DEB0008AD0C3F10403D21ADB071CBF11F8013B5F
:10DEC00000F8013B80D331F8023B20F8023B7BE7AE
:10DED000043AD9D3013A11F8013B00F8013BF9D2D9
:10DEE0000B7803704B7843708B7883706046704773
:10DEF0000000000000000000000000000000000022
:10DF000090F800F06DE9024520F007016FF0000C79
:10DF100010F0070491F820F040F049804FF0000421
:10DF20006FF00700D1E9002391F840F000F10800FC
:10DF300082FA4CF2A4FA8CF283FA4CF3A2FA8CF334
:10DF40004BBBD1E9022382FA4CF200F10800A4FA9B
:10DF50008CF283FA4CF3A2FA8CF3E3B9D1E90423EF
:10DF600082FA4CF200F10800A4FA8CF283FA4CF326
:10DF7000A2FA8CF37BB9D1E9062301F1200182FAE0
:10DF80004CF200F10800A4FA8CF283FA4CF3A2FAE6
:10DF90008CF3002BC6D0002A04BF04301A4612BAF4
:10DFA000B2FA82F2FDE8024500EBD2007047D1E9F7
:10DFB000002304F00305C4F100004FEAC50514F086
:10DFC000040F91F840F00CFA05F562EA05021CBF57
:10DFD00063EA050362464FF00004A9E7032837B55A
:10DFE000154641D004280ED001280ED1224B234AD9
:10DFF0001B780093224B23481B884FF4FB7103F0DE
:10E00000D9F9002027E0002902DC6FF0010022E0AE
:10E0100000221146286806F0BFFD00220446114682
:10E02000686806F0B9FDB4F5803F1749C3B214D251
:10E030000A78022B02F004020FD811490C800E4915
:10E040000B7012B1114803F05FF90E4B0122002052
:10E0500083F8F621187003B030BD0B785B07D4D578
:10E060000B4803F051F9D0E70A4A06484FF4FB7118
:10E0700003F0A0F9C5E700BF800600201059010891
:10E08000820600206404002000000020755301086F
:10E0900097530108C4530108032837B515463AD0F1
:10E0A00004280ED001280ED11E4B1F4A1B88009356
:10E0B0001E4B1F481B884FF4FB7103F07BF90020B7
:10E0C0001FE0002902DC6FF001001AE00022114677
:10E0D000286806F061FD002204461146686806F0D3
:10E0E0005BFDB4F5803F0ED2B0F5803F0BD20F4BF5
:10E0F0001C800C4B18800E4B0122002083F8F62167
:10E10000187003B030BD0B4B1B785B07DBD50A489A
:10E1100003F0FAF8D7E7094A05484FF4FB7103F01A
:10E1200049F9CCE77C060020105901087E06002042
:10E130006404002000000020EB5301082C54010867
:10E14000032837B515463ED004280ED001280ED13D
:10E15000204B214A1B780093204B21481B784FF419
:10E16000FB7103F027F9002023E0002902DC6FF0A7
:10E1700001001EE000221146286806F00DFD002275
:10E1800004461146686806F007FDE2B2012AC3B2F0
:10E1900011D8012B0FD8114B04F001041C700D4B4A
:10E1A00000F0010018700E4B0122002083F8F621C8
:10E1B000187003B030BD0B4B1B785B07D7D50A48EE
:10E1C00003F0A2F8D3E7094A05484FF4FB7103F0C6
:10E1D000F1F8C8E77A060020105901087B060020F4
:10E1E00064040020000000205354010889540108F1
:10E1F000032837B515463BD004280ED001280ED190
:10E200001F4B204A1B7800931F4B20481B784FF46C
:10E21000FB7103F0CFF8002020E0002902DC6FF052
:10E2200001001BE000221146286806F0B5FC002220
:10E23000C4B21146686806F0AFFC631E032BC0B27F
:10E240000ED8431E032B0BD80F4B1C700C4B1870B1
:10E250000E4B0122002083F8F621187003B030BD68
:10E260000B4B1B785B07DAD50A4803F04DF8D6E76D
:10E27000094A06484FF4FB7103F09CF8CBE700BF56
:10E28000740600201059010875060020640400205F
:10E2900000000020A9540108DF540108032837B505
:10E2A00015463ED004280ED001280ED1204B214A1D
:10E2B0001B780093204B21481B784FF4FB7103F02F
:10E2C00079F8002023E0002902DC6FF001001EE055
:10E2D00000221146286806F05FFC00220446114621
:10E2E000686806F059FCE2B2012AC3B211D8012BCA
:10E2F0000FD8114B04F001041C700D4B00F001000D
:10E3000018700E4B0122002083F8F621187003B01C
:10E3100030BD0B4B1B785B07D7D50A4802F0F4FFE2
:10E32000D3E7094A05484FF4FB7103F043F8C8E707
:10E3300076060020105901087706002064040020AA
:10E340000000002002550108DF540108032837B5FA
:10E3500015463ED004280ED001280ED1204B214A6C
:10E360001B780093204B21481B784FF4FB7103F07E
:10E3700021F8002023E0002902DC6FF001001EE0FC
:10E3800000221146286806F007FC002204461146C8
:10E39000686806F001FCE2B2012AC3B211D8012B71
:10E3A0000FD8114B04F001041C700D4B00F001005C
:10E3B00018700E4B0122002083F8F621187003B06C
:10E3C00030BD0B4B1B785B07D7D50A4802F09CFF8A
:10E3D000D3E7094A05484FF4FB7102F0EBFFC8E7A9
:10E3E00078060020105901087906002064040020F6
:10E3F000000000203C55010873550108032837B57B
:10E4000015463BD004280ED001280ED11F4B204AC0
:10E410001B7800931F4B20481B784FF4FB7102F0D0
:10E42000C9FF002020E0002902DC6FF001001BE0A2
:10E4300000221146286806F0AFFB0022C4B2114644
:10E44000686806F0A9FB631F072BC0B20ED8431FF4
:10E45000072B0BD80F4B1C700C4B18700E4B012266
:10E46000002083F8F621187003B030BD0B4B1B78E9
:10E470005B07DAD50A4802F047FFD6E7094A0648A3
:10E480004FF4FB7102F096FFCBE700BF710600204E
:10E4900010590108720600206404002000000020CA
:10E4A00093550108CC550108032837B5154640D0CF
:10E4B00004280ED001280ED1214B224A1B7800934C
:10E4C000214B22481B784FF4FB7102F073FF0020B0
:10E4D00026E0002902DC6FF0010021E00022114655
:10E4E000286806F059FB0022C4B21146686806F09D
:10E4F00053FB092C164AC0B214D81378092803F02C
:10E5000004030FD8104A14700D4A107013B111484B
:10E5100002F0FAFE0D4B0122002083F8F62118705C
:10E5200003B030BD13785B07D5D50B4802F0ECFE85
:10E53000D1E70A4A05484FF4FB7102F03BFFC6E7FA
:10E5400070060020105901086F06002064040020A6
:10E550000000002075530108F45501082A560108EF
:10E56000032837B515463AD004280ED001280ED11D
:10E570001E4B1F4A1B7800931E4B1F481B784FF4FD
:10E58000FB7102F017FF00201FE0002902DC6FF092
:10E5900001001AE000221146286806F0FDFA002268
:10E5A00004461146686806F0F7FAA2B2FF2A83B261
:10E5B0000DD8FF2B0BD80F4B1C700C4B18700E4B4B
:10E5C0000122002083F8F621187003B030BD0B4BF8
:10E5D0001B785B07DBD50A4802F096FED7E7094AAD
:10E5E00005484FF4FB7102F0E5FECCE76C06002015
:10E5F000105901086D06002064040020000000206E
:10E600004B5601088656010830B52DED028B0328C4
:10E6100085B0154656D0042825D0012825D12D4B8C
:10E620009FED2D8AD3ED007AF8EE677AC7EE887AEF
:10E6300017EE900AFEF7E8FECDE90201274BD3ED75
:10E64000007AF8EE677AC7EE887A17EE900AFEF73E
:10E65000DBFE234ACDE9000122484FF4FB7102F0B2
:10E66000A9FE002022E0002902DC6FF001001DE07D
:10E6700000221146286806F08FFA0022044611464F
:10E68000686806F089FA184B9C4213D9984211D950
:10E690004FF47A7358435C430E4B104A1860114B89
:10E6A00014600020012283F8F621187005B0BDEC3B
:10E6B000028B30BD0D4B1B785B07D6D50C4802F0A2
:10E6C00023FED2E70B4A07484FF4FB7102F072FEBB
:10E6D000C7E700BF680600200024744964060020D4
:10E6E000A356010864040020A08601000000002059
:10E6F000AF560108E2560108022810B504D00328DD
:10E7000015D06FF0010010BD0B4890F8F7414CB1E7
:10E7100000240A4A80F8F7414FF4FB7102F04AFEE8
:10E720000020F0E70123064A80F8F731F4E7054AB4
:10E7300001484FF4FB71F1E764040020035701081E
:10E74000155701082857010800B50228A1B006D0C6
:10E75000032821D06FF0010021B05DF804FB0021F7
:10E760007C2201A8009106F0BBF80F4803F0C8F91D
:10E770000D488022694603F0F5F9683005D10B4A4F
:10E780000B484FF4FB7102F015FE642002F096FE78
:10E7900004F002F90020DFE7064A05484FF4FB7158
:10E7A00002F008FEF6E700BF00F003083F5701083B
:10E7B000640400204B570108022808B504D0032840
:10E7C00006D06FF0010008BD04F0E6F80020FAE77B
:10E7D000034A04484FF4FB7102F0ECFDF6E700BF7A
:10E7E00071570108640400202DE9F0430328C1B0EB
:10E7F000164600F09080042801D1002902DC6FF059
:10E80000010041E000221146306806F0C5F90022FF
:10E8100011460746B06806F0BFF9002211460546CA
:10E82000F06806F0B9F9D6F8049004464846FFF7B8
:10E8300067FBFFB2012F804682B228D119EB020F8D
:10E8400028BF002249466846FFF7B8FA1FFA88F841
:10E8500008F1FF33FD2B55D8EDB2022D52D8E4B2AA
:10E86000082C4FD8424630486946FFF7A7FA2F4B8D
:10E8700083F800802E4B1D702E4B1C702E4B0122F6
:10E880001A702E4B0020187041B0BDE8F08309EBE0
:10E890000206C0F34F080132B8EB520F00F0010737
:10E8A00002DA4FF0FF38D1E76A4649464FF0000CD4
:10E8B0001046B14202D3A2EB0008C7E711F8013BB2
:10E8C000A3F1410EBEF1050F09D8373B43EA0C0313
:10E8D000DBB297B1002702F8013BBC46E9E7A3F1A0
:10E8E000610EBEF1050F01D8573BEFE7303BDBB2BD
:10E8F000092BD6D843EA0C03EBE71B015FFA83FC34
:10E900000127D6E70E4B1B785B077FF578AF0D48E4
:10E9100002F0FAFC73E70C4A08484FF4FB7102F06E
:10E9200049FD0020B0E700BF140A0020130B0020AF
:10E93000D8060020C3060020C00600206404002082
:10E94000000000208B570108C1570108032808B5B3
:10E9500013461AD004280BD001281DD1104B114AA0
:10E960001B6811484FF4FB7102F024FD00200BE0FE
:10E97000002911DD00221868114606F00DF9084B38
:10E980001860094B0020187008BD084A06484FF46B
:10E99000FB7102F00FFDE9E76FF00100F4E700BF43
:10E9A000DC0600200C5801086404002012580108FD
:10E9B000032808B513461AD004280BD001281DD10E
:10E9C000104B114A1B6811484FF4FB7102F0F2FC26
:10E9D00000200BE0002911DD00221868114606F026
:10E9E000DBF8084B1860094B0020187008BD084A76
:10E9F00006484FF4FB7102F0DDFCE9E76FF001001F
:10EA0000F4E700BFF00800200C580108640400205F
:10EA100038580108032808B513462BD004280BD01A
:10EA200001280BD1174B184A1B7818484FF4FB717B
:10EA300002F0C0FC002014E0002902DC6FF00100AD
:10EA40000FE000221868114606F0A6F8C0B216289A
:10EA500008D80C4B18700D4B0122002083F8F621CA
:10EA6000187008BD0A4B1B785B07E7D5094802F010
:10EA70004BFCE3E7084A05484FF4FB7102F09AFCAF
:10EA8000D8E700BF73060020B25E010864040020CE
:10EA9000000000206058010899580108032808B5B3
:10EAA000134631D004280BD001280BD11A4B1B4A36
:10EAB0001B781B484FF4FB7102F07CFC00201BE02C
:10EAC000002902DC6FF0010016E0002218681146F0
:10EAD00006F062F8C0B20128124B0ED80E4A1B781D
:10EAE00010705A0702D5104802F00EFC0C4B0122A0
:10EAF000002083F8F621187008BD1B785B07E1D56C
:10EB00000A4802F001FCDDE7094A05484FF4FB71B1
:10EB100002F050FCD2E700BF6E060020B25E010892
:10EB2000640400200000002075530108B558010856
:10EB3000EF58010803282DE9F04113464ED0042870
:10EB400001D1002902DC6FF0010033E000221868D7
:10EB5000264E114606F020F8C4B2012C33D9337882
:10EB60005B07F0D5224802F0CFFBECE724BB2BB1CA
:10EB7000D8F800301F48995C02F0C6FB062002F06E
:10EB80009DFC013539783378EAB2914203F00403F1
:10EB9000ECD8194C194DD9B133B194F90020B5F91D
:10EBA0000010174802F0B0FB164B00203870288088
:10EBB00020701870BDE8F081002BDFD0D8F800304D
:10EBC0001148995CD8E7114FDFF84C800025D9E750
:10EBD000002BE9D00E4802F097FBE5E70D4A094803
:10EBE0004FF4FB7102F0E6FB0020E3E70000002099
:10EBF0001F59010806590108F6080020F4080020F2
:10EC00000F590108640400200C590108EC0700208A
:10EC10001859010845590108E0070020032808B5E4
:10EC200013462DD004280BD001280BD1184B194ABC
:10EC30001B7819484FF4FB7102F0BCFB002016E072
:10EC4000002902DC6FF0010011E000221868114673
:10EC500005F0A2FFC3B2012B0AD80D4B00F0010052
:10EC600018700D4B0122002083F8F621187008BDA2
:10EC70000A4B1B785B07E5D5094802F045FBE1E745
:10EC8000084A05484FF4FB7102F094FBD6E700BF39
:10EC900084060020B25E0108640400200000002009
:10ECA00070590108AA590108032808B513461DD058
:10ECB00004280BD0012820D1114B124A1B6812489E
:10ECC0004FF4FB7102F076FB00200EE0002914DD0A
:10ECD00000221868114605F05FFF094B18600A4BC7
:10ECE0000122002083F8F621187008BD074A064863
:10ECF0004FF4FB7102F05EFBE6E76FF00100F4E712
:10ED000088060020CD59010864040020D25901086A
:10ED100010B5194C94F8F83143BB20F02003413B67
:10ED2000192B15D9A0F12003DBB21F2B0BD90D280D
:10ED300001D00A281AD1B4F8FA31B3F5FB7F0CD20E
:10ED40000022E25412E00D4A22FA03F3DB070DD54C
:10ED5000B4F8FA31B3F5FB7F09D307484FF4FB72DF
:10ED6000FF2105F0BDFD0023A4F8FA3110BD5A1CA7
:10ED7000E054A4F8FA21F9E7640400200138FFA761
:10ED800008B5054B1B785B07014602D5034802F026
:10ED9000BBFA002008BD00BF00000020025A010895
:10EDA00002282DE9F04105D0032839D06FF0010089
:10EDB000BDE8F0811D4B1C78A4BB1D4D1D4EDFF836
:10EDC00084802C70274600227368114601209847E2
:10EDD00088B998F800305B0703D53168164802F00F
:10EDE00093FA2846FFF78CF801462846FFF7C8FF3C
:10EDF000142002F063FB4FF4FB72FF21284601341C
:10EE0000A5F8FA7105F06CFD162C06F10806DAD1AA
:10EE10000A4A07484FF4FB7102F0CCFA0020C7E71A
:10EE2000074AF6E76FF00200C2E700BF14090020AE
:10EE30006404002088500108055A01081F5D01087C
:10EE40000B5A0108000000202DE9F043834DB5F86E
:10EE5000FA212978931E412993B01BB217D1687803
:10EE6000542814D1A87890B97D4B1B785A0702D545
:10EE70007C4802F049FA794800234FF4FB72FF21E5
:10EE8000A5F8FA3113B0BDE8F04305F029BD022A18
:10EE900002D8AA5C002AEED0002B2ADD2B449C78F5
:10EEA0003CBB0123412985F8F83125D06E4B6F4AD0
:10EEB0006A484FF4FB7102F07DFA4FF0FF34674867
:10EEC000FFF71EF801466548FFF75AFF34B9644B57
:10EED0001B785B0702D5634802F016FA00245F48EE
:10EEE000A5F8FA414FF4FB72FF2105F0F9FC85F813
:10EEF000F84113B0BDE8F0836B78542BD6D1AB78D2
:10EF00005B4E3F2B33D1EB788BBBDFF85491534FE3
:10EF10001C4698460022736811460320984770B932
:10EF200099F800305B0703D53168524802F0ECF9DC
:10EF30003846FEF7E5FF01463846FFF721FF32204D
:10EF400002F0BCFA01344FF4FB72FF213846A5F8F9
:10EF5000FA8105F0C5FC162C06F10806DAD1464AFE
:10EF60003E484FF4FB7102F025FA0024A7E7DFF8D2
:10EF70000C8156F8341001910846FEF7C1FF019943
:10EF8000024681463D4805F0FDFC0746D0B906EB38
:10EF9000C40408EB09006468002C87D018F8091035
:10EFA000A1B902AA0220A0470446661C3FF47EAF26
:10EFB000A01C49D1324B2D4A28484FF4FB7102F076
:10EFC000F9F97CE70134162CD3D16FE7202903D15E
:10EFD000029002AA0121E5E73F2906D141780029E4
:10EFE0007FF464AF02AA0320DDE73D297FF45EAF22
:10EFF00042783F2A04D1817811B902AA0120D2E7D0
:10F000002049DFF88090013005F0FCFC0DF1080884
:10F01000064686B902AA39460420A04704460028BD
:10F02000C3D195F8F631012B7FF449AF00F070F9A8
:10F0300085F8F66143E748F8046B4946002005F07F
:10F04000E1FC01370646E4E7E11C01D10E4BB2E7D3
:10F05000221D7FF434AF0D4BADE700BF64040020E8
:10F0600000000020265A01082D5A0108365A0108CE
:10F07000885001083D5A01081F5D01086604002000
:10F08000465A0108445A0108555A0108635A0108B2
:10F09000044800234FF4FB72FF21A0F8FA3105F079
:10F0A0001FBC00BF64040020F0B52DED028B93B0AF
:10F0B0007E4B04937E4B7F4D05937F4B06937F4B96
:10F0C00007930FCD08AC0FC40FCD0FC495E8030014
:10F0D0007B4D84E803002B787A4C5B07D4E90076FB
:10F0E00008D5794802F010F92B78580702D57748EF
:10F0F00002F00AF9142002F0E1F92B78590704D53F
:10F10000227A617A724802F0FFF8142002F0D6F9F0
:10F11000A37A012B2B7840F0C3805A0702D56D48A3
:10F1200002F0F2F8142002F0C9F922686A486B492B
:10F1300002448A422AD8636803448B4226D82B783B
:10F14000580720D507EE907A9FED658AF8EE677A2A
:10F15000C7EE887A17EE900AFEF756F907EE906A26
:10F16000F8EE677A0246C7EE887A0B46CDE90223AD
:10F1700017EE900AFEF748F9DDE90223CDE9000118
:10F18000584802F0C1F8142002F098F9E37A092BEC
:10F1900014D8227B092A11D8297849070BD512A93E
:10F1A00001EB820201EB830352F8282C53F8281C50
:10F1B0004D4802F0A9F8142002F080F92B785A0784
:10F1C00004D5627BA17B494802F09EF8142002F02E
:10F1D00075F92B785B0703D5E17B454802F094F87D
:10F1E000142002F06BF92B785F0706D5227C617C36
:10F1F00040480432043102F087F8142002F05EF92E
:10F200002B785E070ED5A27C3B4812AB03EB820243
:10F21000E37C52F8302C12A901EB830353F8301C25
:10F2200002F072F8142002F049F92B7858070ED535
:10F23000227D324812AB03EB8202637D52F8382CF8
:10F2400012A901EB830353F8381C02F05DF8142077
:10F2500002F034F92B78590704D5A27DE17D2848C6
:10F2600002F052F8142002F029F92B785A0704D53D
:10F27000228B618B234802F047F8142002F01EF91C
:10F280002B785B0704D5227FE18B1F4802F03CF806
:10F29000142013B0BDEC028BBDE8F04002F00EB9B3
:10F2A0005B077FF53FAF19483AE700BFFF5A0108F7
:10F2B000035B010838510108065B0108165B010871
:10F2C0000000002064060020D05D01085A5B0108A0
:10F2D000755B0108865B0108808B2DE54013B92022
:10F2E00000247449D35B0108F45B0108115C010838
:10F2F0002D5C0108445C01085F5C0108765C010834
:10F30000855C01089A5C0108AE5C0108AC5B0108F1
:10F3100000B5A1B001F0DAFF0028FBD022238DF860
:10F320000030414B41485A7A8DF801201A7A8DF805
:10F3300002201A688DF80620110E8DF80310110CAA
:10F340008DF80410110A5A688DF80510110E8DF809
:10F350000710110C8DF808108DF80A20110ADA7ABE
:10F360008DF80B201A7B8DF80C209A7B8DF80D20E0
:10F370005A7B8DF80E20DA7B8DF80F205A7C8DF8A1
:10F3800010201A7C8DF81120DA7C8DF812209A7CDE
:10F390008DF809108DF813205A7D8DF814201A7DF0
:10F3A0008DF81520DA7D8DF816209A7D8DF81720BE
:10F3B0005A8B8DF81920110A1A8B8DF818108DF8B8
:10F3C0001B20110A9A7A8DF81C20DA8B8DF81A10FE
:10F3D0008DF81E20110A1A7F8DF81F2093F8202027
:10F3E0005B6A8DF820201A0E8DF821201A0C8DF8FA
:10F3F00022201A0A8DF81D108DF823208DF8243054
:10F4000002F07EFB09488022694602F0ABFB6830BF
:10F4100006D1074B1B785B0702D5064801F074FF45
:10F4200021B05DF804FB00BF6406002000F0030873
:10F4300000000020C15C010800B5A1B001F046FF4A
:10F440000028FBD0384B39496A4613F8010B02F803
:10F45000010B8B42F9D1364B9DF801205A729DF871
:10F4600002201A72DDF8032012BA1A60DDF80720B4
:10F4700012BA5A609DF80B20DA729DF80C201A73AC
:10F480009DF80D209A739DF80E205A739DF80F2059
:10F49000DA739DF810205A749DF811201A749DF8A3
:10F4A0001220003A18BF0122DA749DF81320003AA6
:10F4B00018BF01229A749DF81420003A18BF012247
:10F4C0005A759DF81520003A18BF01221A759DF84B
:10F4D0001620003A18BF0122DA759DF81720003A6D
:10F4E00018BF01229A75BDF8182052BA5A83BDF888
:10F4F0001A2052BA1A839DF81C209A72BDF81D205A
:10F5000052BADA839DF81F201A779DF82020003A1E
:10F5100018BF012283F82020DDF8212012BA5A6298
:10F5200021B05DF804FB00BF00F0030880F0030881
:10F530006406002008B5194B1A78531EDBB2FD2B68
:10F5400001D8112A23D1164B1649C3E900110C2109
:10F55000997359730E214FF47A72D97301210820DF
:10F560005A625974002219745975197599724FF6B7
:10F57000FF715A721A72DA721A73DA749A74DA753F
:10F580009A7558831883D9831A77FFF7C1FEFFF75E
:10F5900053FFBDE80840FFF787BD00BF00F0030838
:10F5A00064060020604FC73308B5034BDB6A9847F9
:10F5B000024B01221A7008BDDC520108900600209F
:10F5C000034B1B785B0702D5024801F09DBE7047D4
:10F5D00000000020D65C0108034B1B785B0702D5B6
:10F5E000024801F091BE704700000020E05C010875
:10F5F00008B5074B1B785B0702D5064801F084FE6F
:10F60000054BDB6A9847054B01221A7008BD00BF05
:10F6100000000020EC5C0108DC520108900600208C
:10F6200010B5064C44F25061201D03F05BFB201D19
:10F6300003F0B8FA0123237610BD00BF9006002026
:10F6400010B5054C04F11C0003F01CFB012384F8E9
:10F65000303084F8313010BD9006002010B5134CC6
:10F6600094F8323094F833200133DBB29A4284F8B4
:10F67000323009D204F1340003F004FB002384F893
:10F68000323084F8483010BD41F2883104F1340042
:10F6900003F028FB04F1340003F084FAE36C013B2F
:10F6A000E364012384F83030EDE700BF90060020CA
:10F6B0002DE9F04F8DB0CDE90223B34BB34C1B784D
:10F6C00005460E461BB102789A4240F05981B04F70
:10F6D000002384F850303B785B0702D5AD4801F039
:10F6E00013FEAC4B07AA03F1100E90461868596838
:10F6F0009446ACE80300083373456246F6D11B78A4
:10F70000DFF8C0928CF800304FF0000B4046FEF757
:10F71000F7FB5FFA8BFA50450BF1010B00F2898081
:10F72000DFF8A4823B7898F8002003F00403002A55
:10F7300040F0938013B1984801F0E6FD964ADFF857
:10F7400084921068516804AB03C34FF0000B04A807
:10F75000FEF7D6FB5FFA8BFA50450BF1010B72D81E
:10F76000AB19DFF86092DFF864A20193019B9D4220
:10F7700040F096803B785A0702D5884801F0C4FDD6
:10F78000864BDFF8408218681B7904908DF814309E
:10F79000002604A8FEF7B4FBF5B2854206F1010687
:10F7A000C0F0BD8094F848307D4894F8501084F83B
:10F7B0005C11012BC4E9540084F8581140F0C38057
:10F7C000002200F586751346D6B2B14200F2B18030
:10F7D00094F85C229A420DD1724803F053FA002348
:10F7E00084F8323084F848303B785B0702D56E48A5
:10F7F00001F08AFD6D4B1B7853B16D4B19680029E0
:10F8000000F0B8806B4803F06DFA6A4803F0CAF95B
:10F81000D4F860320133C4F86032029BA4F8643239
:10F82000039B84F86632644B00221A700DB0BDE869
:10F83000F08F0AF130030DEB030A48461AF8141C46
:10F8400003F0C0F862E70AF130030DEB030A484603
:10F850001AF8201C03F0B6F879E713B1574801F005
:10F8600053FD564ADFF85C911068516804AB03C33E
:10F87000906818604FF0000B04A8FEF741FB5FFA98
:10F880008BFA50450BF1010B7FF66AAF0AF130039A
:10F890000DEB030A48461AF8201C03F093F8EBE737
:10F8A00098F80030297893BB3B78580702D550462A
:10F8B00001F02AFD00262B78ADF8186052460A2187
:10F8C00004A8CDE9046601F075FDB34604A8FEF76F
:10F8D00017FB5FFA8BF6B0420BF1010B0DD8062037
:10F8E00001F0ECFD94F850305A1C234484F8502069
:10F8F00015F8012B83F8512038E706F130030DEBA2
:10F900000306484616F8201C03F05CF8DEE72C4896
:10F9100001F0FAFC2978484603F054F8DFE705F1D6
:10F9200030030DEB0305404615F8201C03F04AF8A0
:10F930002FE715F801CB10F8016BB44504BF013374
:10F94000DBB2013240E7022B7FF454AF94F8515000
:10F95000002D7FF44FAF94F85220FF2A7FF44AAF76
:10F960001D3884F8583103F08DF984F8325084F84A
:10F97000485039E7012384F8303084F8313047E7C4
:10F98000012384F8673251E76C06002090060020BE
:10F9900000000020F85C0108095D01081D5D0108F8
:10F9A000E1060020C4060020225D01088006002038
:10F9B00088060020AC060020B40F0020115D01086D
:10F9C0000C59010800000140840600200659010876
:10F9D00030B5022287B005460C212248224C02F0A5
:10F9E000AFF901221146214802F0AAF9204602F09F
:10F9F000BDFA01211B2002F0B9FB41F6034301933C
:10FA000069464FF480732046ADF80830009502F047
:10FA100069FA01222046022102F024FA2046002140
:10FA200002F035FA0121204602F01EFA104B402266
:10FA300083F809234FF400721A6003A8A4F5005458
:10FA400002F0C5FF4FF4887303A92046ADF81630C5
:10FA5000039502F0D1FF0121204602F0C3FF07B059
:10FA600030BD00BF00FC01400050004000F40140E8
:10FA700000E100E01FB5044601221048082102F011
:10FA80005FF9012209210D4802F05AF901A802F09C
:10FA90009EFF019460230A4CADF8083000238DF8D6
:10FAA0000A3001A94FF440132046039302F0A4FF4B
:10FAB0000121204602F096FF04B010BD00F4014081
:10FAC00000000140012138B5084602F0A9FD0120DF
:10FAD00002F014FB0121052002F048FB642001F034
:10FAE000EDFC012002F058F90C2002F07BF940F601
:10FAF000FF7002F083F902F09FF90121022002F069
:10FB00008FFD01210D2002F031FB0121202002F0A8
:10FB10002DFB0121212002F029FB0121222002F0EE
:10FB200025FB01211B2002F021FB01211F2002F0F7
:10FB30001DFB01211D2002F019FB0121412002F0D3
:10FB400015FB0121032002F011FB0121002002F02E
:10FB50000DFB01210E2002F009FB0121402002F0E3
:10FB600005FB4FF080450121312002F0FFFA6420AF
:10FB700001F0A4FC2C6A14F0240415D104F090FBCD
:10FB80000F4B104A1C60EE21C3F80140C3F802403D
:10FB9000C3F803405C60C3F8054003F5807343F885
:10FBA000011B9342FBD138BD012002F0FBFD064B47
:10FBB00002221A602B6A43F024032B62F3E700BF92
:10FBC00000F0002000FE002000E100E07748784BC4
:10FBD0002DE9F043C0F86832764BC0F87032764BAE
:10FBE000764CC0F86C32764BC0F87432754BC0F866
:10FBF00078328BB02368744F744EDFF81892DFF8B8
:10FC0000188200F51A709847714B1878E36D003828
:10FC100018BF01209847FF21A36D01209847E36892
:10FC20003868984701206B4B09901B780893002394
:10FC3000CDE90633684A69491278A569CDE90432ED
:10FC4000674A1278CDE90232664A1288CDE900325D
:10FC5000654B32781B780978A847B9F80010634DD6
:10FC6000634A4FF6FF73994244D12B78127803F020
:10FC700004031AB3F3B15F4801F046FB2B785B072E
:10FC800018D5D7ED007A9FED5C7AF8EE677AC7EE6B
:10FC9000877A17EE900AFDF7B7FB0B463178009193
:10FCA0000246564801F030FB2B785D0702D55448D8
:10FCB00001F02AFB636B0020984727E0002BF9D066
:10FCC000504801F021FB2B785807F3D5D7ED007A87
:10FCD0009FED497AF8EE677AC7EE877A17EE900AB9
:10FCE000FDF792FB0B46317800910246434801F044
:10FCF0000BFBDFE72B78127803F0040381B95AB1CC
:10FD000013B1414801F000FBE36A9847002388F8EB
:10FD100000300BB0BDE8F083002BF5D03948F1E797
:10FD200042B303B3394801F0EFFA2B7859071AD5DB
:10FD3000D7ED007A9FED307AF8EE677AC7EE877AD2
:10FD400017EE900AFDF760FB0B46317800910246F2
:10FD50002A4801F0D9FA2B785A0704D5B9F80010CF
:10FD60002B4801F0D1FAB9F80020636B4FF47A7098
:10FD70005043A1E7002BF6D0224801F0C5FA2B78BA
:10FD80005B07F0D5D7ED007A9FED1B7AF8EE677A26
:10FD9000C7EE877A17EE900AFDF736FB0B463178EF
:10FDA00000910246154801F0AFFADCE7900600200A
:10FDB000A9F50008B1F60008F1F50008DC520108C9
:10FDC000D9F50008C1F5000868060020710600207A
:10FDD0006E0600207A0600207806002070060020BB
:10FDE000760600207C06002074060020000000201B
:10FDF0005B060020305D010800247449565D01084F
:10FE0000745D01088D5D0108AC5D0108D35D0108DA
:10FE1000F55D010882060020B40F002080B58AB08D
:10FE2000FFF750FE4FF41650FFF7D2FD4FF4165077
:10FE3000FFF720FEFFF72CF9FFF77CFBFFF7C6FE6C
:10FE4000A649A748A74E02F0A5FE44F25061A44877
:10FE500002F048FFA24802F0A5FEA349A34802F021
:10FE600099FEA349A34802F095FE337833B1A24B23
:10FE70001B78580702D5A14801F046FAA04CA14DC5
:10FE8000FEF7E2FF94F83030002B00F0838094F806
:10FE90008432002B7ED1012384F8843294F83130EF
:10FEA000DFF8548233B198F80030590702D59648EC
:10FEB00001F02AFADFF8C0A2EB68DAF80000DFF8F8
:10FEC000BC92984740F6B8330893904B90491B7802
:10FED00007930022CDE905228E4B1B7804938E4BAD
:10FEE0001B7803938D4B1B8802938D4B1B780193DA
:10FEF00099F800300093EB6991F900101F46894B87
:10FF000001201B78B8473378002B40F0C98098F85F
:10FF100000305A0702D5844801F0F6F9E36C01334A
:10FF2000E36498F800305F0713D5DAED007A9FEDAF
:10FF30007F7AF8EE677AC7EE877A17EE900AFDF7B8
:10FF400063FA0B4699F8001000910246784801F0D8
:10FF5000DBF994F83130002B00F01681754B1978DD
:10FF6000012940F0AF80744B1B7813B184F88532BF
:10FF70000B4694F85010714A1944C9B28B4240F0B4
:10FF80009980AB6A6E489847002384F8313000238B
:10FF900084F830302378002B58D0DFF8E491EB68F8
:10FFA000D9F80000DFF8DC8198470120654B099003
:10FFB0001B7808930023CDE90633634A634912781E
:10FFC000AF69CDE90432624A1278CDE90232614A62
:10FFD0001288CDE90032604B98F800201B78097830
:10FFE000B8475E4F3B88002B00F00481DFF808A182
:10FFF0009AF80030580713D5D9ED007A9FED4B7A67
:020000040801F1
:10000000F8EE677AC7EE877A17EE900AFDF7FCF9EB
:100010000B4698F8001000910246514801F074F91F
:10002000398833784FF6FF72914240F0D58033B172
:100030009AF80030590702D54A4801F065F96B6B10
:1000400000209847002384F884322370237ED3B1A4
:100050000023237601F0E0FE94F8843403F0FF02DD
:100060008BB994F885340133DBB284F8853494F885
:100070008534012B07D93C4B84F8852419883B4BE8
:1000800019803B4B1A7001F021F9002800F0BE8066
:10009000012384F8843402F039FE6B6E9847EFE652
:1000A00098F800305B077FF539AFE16C314801F01B
:1000B0002BF933E7581C234412F8017B83F885722F
:1000C000C3B25BE702294FF0000303BF84F8853217
:1000D000FF2384F88632194653E700BF21F6000853
:1000E000940600205B0600205DF60008C406002090
:1000F00041F60008AC06002000000020165E010852
:1001000090060020DC520108295E01087B060020D1
:100110007306002079060020770600207E06002066
:10012000750600206F0600208D5D010800247449CB
:10013000575E0108800600206D060020E1060020C1
:10014000150900207A06002078060020700600209D
:10015000760600207C06002074060020820600201F
:10016000565D0108745D01081A0B0020180B002071
:10017000B40F0020345E01086406002072060020DF
:100180006806002071060020224B1B7813B184F80A
:100190005D31012394F883241F491A44D2B29A4254
:1001A00012D194F8483084F85C223BB11B4841F2EC
:1001B000883102F097FD194802F0F4FCAB6A94F81C
:1001C0005C1217489847E2E6581C234411F8017B5B
:1001D00083F85D71C3B2E2E733B19AF800305A0791
:1001E00002D5104801F090F83A886B6B4FF47A70A2
:1001F000504326E7337833B10B4B1B785B0702D5AE
:100200000A4801F081F8EB6A98471BE784F88404F8
:1002100043E700BF6D060020140A0020C40600203A
:10022000ED070020F55D010800000020755E010863
:100230007047FEE7FEE7FEE7FEE77047704770474E
:10024000704703F0C1BB04F047B9704710B50948C7
:10025000022101F025FE60B1064801F03AFE0221BC
:100260000446044801F025FE2046BDE81040FEF794
:100270004FBD10BD0050004001F07EBA01F0ACBA95
:1002800070479A4238BF88547047704780B1094A16
:10029000138851880133C3F309038B4208D072B627
:1002A0001388D1180133C3F309030871138062B6B0
:1002B000704700BF180B00202DE9F84F99460D9BA1
:1002C00015469A07DDE90B4706468B4622D02A469B
:1002D0000A9901EB04081444A2421FD10D9B9B070D
:1002E00005D5A2EB0508474505EB08041FD82046B5
:1002F000BDE8F88F4B4659462020B04708F1010869
:10030000B8450AEB0802F5D33A1BBC4288BF00226D
:100310002A44DDE7A046A5EB040AF1E702F1010A51
:1003200018F8010D4B465946B0475246D4E74B46A4
:10033000224659462020B04708F10108D3E72DE9AD
:10034000F047DDE90D7616F0020FDDE90854DDE92E
:100350000BC89DF828E01FD106F001094FB1B9F193
:10036000000F06D0BEF1000F02D116F00C0F00D026
:10037000013F4FF0300A04E0202C04D005F804A01F
:100380000134A045F8D84FF0300AB9F1000F03D07E
:10039000BC4201D21F2C34D916F0100F1FD016F416
:1003A000806F33D194B3444501D0BC422ED1B4F117
:1003B00001082AD0BCF1100F33D1023C16F0200FF7
:1003C00031D11F2C15D84FF0780C05F804C001343A
:1003D0001F2C0ED84FF0300C05F804C001341F2C30
:1003E00007D8BEF1000F23D04FF02D0C05F804C044
:1003F0000134CDE90A76CDE90854BDE8F047FFF7AE
:100400005BBF05F804A00134BFE74446BCF1100F00
:10041000D4D0BCF1020FDBD11F2CEAD84FF0620C14
:10042000D3E74446F5E71F2CE3D84FF0580CCCE750
:1004300016F0040F02D04FF02B0CD7E716F0080F80
:10044000D7D04FF0200CD1E72DE9F04391B0189DA3
:100450001A9E1D9F0DB927F010077C0500D515B316
:1004600017F0200F14BF4FF0410E4FF0610EAC4655
:100470000DF120080025AEF10A0EBCFBF6F906FBD3
:1004800019C95FFA89F4B9F1090F94BF3034744483
:10049000E4B2B44508F8014BBCFBF6F405F10105E4
:1004A00001D3202D10D11C9C05941B9C0697CDE9EF
:1004B00003649DF86440CDE9015408AC0094FFF753
:1004C0003EFF11B0BDE8F083A446D6E72DE9F04F1A
:1004D0002DED048B93B0DDE92065289F9A4656EAFE
:1004E000050308BF27F0100709EE102A7A05DDE999
:1004F00024B908EE100A08EE901A02D556EA050350
:100500003DD017F0200F14BF412361230A3B0DF1AA
:100510002808002409935A464B4630462946FDF7E1
:10052000ADFAD2B2092A8ABF099B3032D2185E4591
:10053000D2B275EB090308F8012B04F1010401D3D1
:10054000202C19D1279B0593269B0697CDE903B351
:100550009DF88830CDE901430AAB009319EE102ACB
:1005600018EE901A18EE100A5346FFF7E8FE13B083
:10057000BDEC048BBDE8F08F06460D46CBE70024AA
:10058000E0E70000000000002DE9F04F2DED088BA2
:100590008DB01D46DDE920B39DED1E7B0A93229BA5
:1005A000079208EE900AB0EE479AF0EE679A0C4672
:1005B000069351EC170B53EC172BFDF7E5F980B1BF
:1005C000CB4B51EC190B4FF0FF32FDF705FA40B958
:1005D00051EC190B4FF0FF326FF48013FDF7DEF989
:1005E00090B1069B22930A9B079A18EE900ACDE9D8
:1005F00020B321462B468DED1E9B0DB0BDEC088B24
:10060000BDE8F04F00F08CB951EC190B002200232B
:10061000FDF7C4F9002800F03F8119EE903A19EE79
:10062000108A03F10049069B9FEDB27A9FEDB28AD2
:1006300013F480630B93C9F30A53A3F2FF3307EE5D
:10064000903AC9F31302F8EEE77A42F07F51AB4BD0
:100650004FF00002404641F4401108BF4FF0060B36
:10066000A7EE878AFCF770FD9BA3D3E90023FCF774
:1006700023FF064618EE100A0F46FCF7C5FE024699
:100680000B4630463946FCF761FDFDF7AFF907EE42
:10069000900AB8EEE77ADFED9A7AB6EE008AA7EE16
:1006A000278A8246DFED977ABDEEC88AF8EEC86ADF
:1006B00067EEE67ADFED946AE7EE267A17EE900AA7
:1006C000FCF7A2FE02460B4606460F46FCF7F4FE78
:1006D000324641EC1A0B3B4630463946FCF736FDB4
:1006E0008A4B41EC1B0B002251EC1A0BFDF70EF864
:1006F000874B0022FCF72AFD02460B4651EC1A0BF1
:10070000FDF704F8834B0022FCF720FD02460B4660
:1007100051EC1A0BFCF7FAFF324641EC1A0B3B4640
:1007200000204FF08041FCF70FFD02460B4651ECD4
:100730001A0BFCF70BFD02460B4651EC1B0BFCF7AA
:10074000E5FF754B0022FCF701FD18EE103A03F2AD
:10075000FF3633050022FCF7AFFE42464B46064605
:100760000F46FDF739F9002840F09980CDE9086778
:100770000AF16303C72B069B34BF0426052619051F
:1007800023D557A3D3E9002340464946FDF71AF97C
:10079000002800F08F8054A3D3E900234046494647
:1007A000FDF7FCF8002800F08580069BD345C8BF04
:1007B000ABEB0A0B43F480634FF00006CCBF0BF1A8
:1007C000FF3B4FF0000B0693B2460A9B9E4238BF98
:1007D0009F1B069B28BF002713F002030B9302D038
:1007E000002E18BF0027BAF1000F07D04046494637
:1007F000DDE90823FCF78AFF8046894651EC190B96
:1008000000220023FDF7CAF810B109F10043994610
:10081000069B079ACDF808B023F40063CDE9037373
:10082000CDE9008918EE900A2B46214600F078F8B1
:100830006EB3069B13F0200F00F1010802462B4611
:1008400014BF45206520214618EE907AB84705234D
:10085000059300220A238AEAEA70CDE90232A0EB6E
:10086000EA704FEADA73013E019300902B4618EECE
:10087000900A049642462146FFF7E6FD0B9B33B1F2
:10088000079BC61A079B98190A9BB3421BD80DB049
:10089000BDEC088BBDE8F08F59EC198BC3E61C4BFF
:1008A000002230463946FCF731FF0AF1FF3ACDE924
:1008B00008015DE7BBF1000F87D00B9B002B84D0B4
:1008C0000BF1FF3B81E7024618EE907A2B4621465A
:1008D0002020B8470136D5E700000060A787D23F47
:1008E000000000E0E2361A3F0000000080842E4144
:1008F000FFFFEF7F9B209A3E4451343E0000F83FBB
:10090000789A54401872313F8E5D134000002C409D
:1009100000002440000018400000F03F00000000EC
:100920002DE9F04F2DED088B8FB0DDE920AB09EEFE
:10093000103ADDE9225308EE100A08EE902A0F461D
:10094000049352465B4650465946249EFDF71CF8D8
:10095000A0B9049B229303232193B94B23962093A0
:1009600018EE902A19EE103A18EE100A39460FB018
:10097000BDEC088BBDE8F04FFFF79EBC4FF0FF3297
:100980006FF4801350465946FDF708F830B1049BC8
:100990002293042321932396AA4BE0E7AA4B4FF01E
:1009A000FF3250465946FDF717F870B1A74A04992F
:1009B000239606F00403002B08BF0322A44B1CBFA0
:1009C00013460422CDE92121C9E799A3D3E90023E5
:1009D00050465946FDF700F838B997A3D3E90023EC
:1009E00050465946FCF7DAFF98B1049B2496CDE9AE
:1009F000225318EE902A19EE103A18EE100A3946D2
:100A0000CDE920AB0FB0BDEC088BBDE8F04FFFF790
:100A1000BBBD0022002350465946FCF7BFFF00280B
:100A200000F081805B46524600200021FCF78CFBE1
:100A3000012382468B46059316F4806F08BF062576
:100A400006ABA5F12002A9463021B9F1090FA5EBAB
:100A5000090406D909F1FF394A4503F8011BF4D10D
:100A6000202459465046FCF7C1FF7A4B03EBC903DB
:100A700093ED007B0546B0EE47AAF0EE67AAFCF7BF
:100A8000B1FC02460B4650465946FCF75DFB53EC61
:100A90001A2BFCF711FD02460B4643EC1B2BFCF70F
:100AA000CDFF8046FCF78EFC02460B4651EC1B0B3B
:100AB000FCF74AFB02460B4643EC1B2B664B00221D
:100AC000FCF78AFF88B308F101084046FCF77AFC7E
:100AD00002460B4651EC1A0BFCF76AFF10B10135C8
:100AE0004FF00008B9F1000F50D12846FCF77AFC0E
:100AF00002460B4650465946FCF726FB564B002251
:100B000080468946FCF74AFF30B1534B00224046ED
:100B10004946FCF761FF10B1E80700D5013506AB87
:100B200023440A2259E0059086E74B4B51EC1B0BFE
:100B30000022FCF733FF0028D4D1B8F1000F02D017
:100B400018F0010FCED008F10108CBE7B8FBF1F0A7
:100B500001FB10823032B8F1090F03F8012B09F1C3
:100B6000FF3904F1010428D8A14406AA3021202C21
:100B700011D04C4504F1010321D104F138020DEBF1
:100B800002042E2204F8202C1C46C8E706AB23449E
:100B90000A21202CDAD106F00303012B06AB39D150
:100BA000049A002A36D0059A12B916F00C0F02D01A
:100BB000049A013A0492302214E08046E9E7A154F5
:100BC0001C46D4E795FBF2F102FB1155303503F8D2
:100BD000015B01340D460029DDD0202CF2D1DAE78B
:100BE0001A5501340499A14214D9202CF8D1049A41
:100BF0000093CDE9014219EE103A18EE902A18EE52
:100C0000100A03963946FFF757FB0FB0BDEC088B6F
:100C1000BDE8F08F202CEAD0059AFAB104F1380231
:100C20006A442D2102F8201C0134E0E7AFF3008074
:100C30000000000065CDCD410000000065CDCDC1B4
:100C4000935E0108975E0108FFFFEF7F8E5E01084B
:100C50008A5E0108605101080000E03F710704D579
:100C600004F138026A442B21DCE73207BFD504F1D6
:100C700038026A442021D5E72DE9F047274C268821
:100C80006588AE42074611D9761B802EA8BF802604
:100C9000211D294426EAE67204F20440FDF78EF88D
:100CA00015FA86F565803E80BDE8F087FCD2C5F573
:100CB0008066802E04F204481ADC26EAE67904F104
:100CC000040A4A460AEB05014046FDF777F8002181
:100CD00061803E806388208899449A44C8440A46CB
:100CE00098420ED802B163803A8813443B80DBE718
:100CF00061198026324604314046FDF75FF83544DD
:100D0000D0E7591C802E89B2ECD01AF8013B08F8C4
:100D1000013B01360B460122E2E700BF180B002021
:100D200073B5164C2288638800259A42ADF80650A8
:100D300004F2844608D130466580258000F042FEEA
:100D400084F89C5402B070BD0DF10600FFF794FFCB
:100D500004F20443C4F884343046BDF80630A4F8E5
:100D6000903400F069FD94F89304294600F0FAFDF0
:100D700003480122022101F0DFFEE3E7180B002007
:100D8000003000402DE9F04F91B09B46B74B1A9EC2
:100D90000029904614BF8146994600259BF8000023
:100DA00058B945452CBF08F1FF322A46434600207A
:100DB000C847284611B0BDE8F08F25280BF1010B7C
:100DC00006D02A466C1C43460A91C8472546B2E124
:100DD000002306E02D2A14D0302A0CD143F0010361
:100DE0008346584610F8012B2B2A0DD0F2D8202A22
:100DF0000DD0232A0ED0A2F13004092C29D80027C7
:100E000010E043F00203EBE743F00403E8E743F0AC
:100E10000803E5E743F01003E2E70A2404FB072791
:100E2000303F8346584610F8012BA2F13004092CBC
:100E3000F3D99BF800202E2A67D19BF80100A0F17E
:100E40003004092C0BF1010243F4806353D80024D1
:100E500011E02A2A08D156F8047B002FBCBF43F0CA
:100E600002037F428346E4E70027E2E70A2202FB0F
:100E70000404303C624694461CF8010BA0F1300E8D
:100E8000BEF1090FF2D993465A4612F8010B6C28AD
:100E900044D03CD868284AD06A2852D05A46934653
:100EA0001BF8010B78288CD857284DD8452805D039
:100EB00087D9462800F02C81472882D100F0DF0234
:100EC000472A04BF00F0FD0043F40063452808BF33
:100ED00043F02003CDE90373073626F0070602949A
:100EE000F6E802234846CDE9002343462A460A9104
:100EF000FFF74AFB1EE12A2806D156F8044B0BF1F6
:100F0000020B24EAE474BFE793460024BCE774288C
:100F100001D07A28C2D143F48073C0E79BF8010066
:100F20006C28F8D143F440730BF10202B7E79BF849
:100F30000100682802D043F08003B0E743F0C0030B
:100F4000F2E743F40073AAE7A0F15802202A3FF623
:100F500038AF0FF2080C5CF822F000BFE10F010877
:100F6000C30D0108C30D0108C30D0108C30D01081D
:100F7000C30D0108C30D0108C30D0108C30D01080D
:100F8000C30D0108E10F01083B110108E10F010841
:100F9000BD0E010815110108BD0E0108C30D0108A1
:100FA000E10F0108C30D0108C30D0108C30D0108BD
:100FB000C30D0108C30D0108E10F010891120108DA
:100FC000C30D0108C30D0108BB110108C30D0108C1
:100FD000E10F0108C30D0108C30D0108E10F01086D
:100FE000782800F06B81582800F066816F2800F0A7
:100FF0006781622800F06681692823F010034FF0B2
:101000000A0203D0642801D023F00C0313F4806F8C
:1010100018BF23F00103692803F4007C01D0642881
:1010200041D1BCF1000F23D0073626F00706B246A7
:1010300076685AF8080B0694CDE9077300230593E8
:10104000F30F002E02930492034602DA434266EB4A
:101050004606CDE9003643462A4648460A91FFF740
:1010600035FA0A990546564698E600BF8B020108F4
:10107000D80506F1040A0CD53068CDE90224CDE983
:10108000047300284FEAD0730193B8BF4042009028
:1010900027E013F0400F306801D0C0B2EDE71E0624
:1010A00048BF00B2E9E7BCF1000F0ED0CDE90773ED
:1010B0000023CDE90423073626F0070A069402939D
:1010C000FAE80223CDE90023C5E7D80506F1040AB2
:1010D0000ED5CDE90473CDE90224CDF804C0336800
:1010E000009343462A4648460A91FFF7ADF9B8E710
:1010F00013F0400F306807D0C0B2CDE9047300236D
:10110000CDE902240193C2E71E0648BF80B2F4E78E
:1011100043F02003CDE90373073626F00706029457
:10112000F6E802234846CDE9002343462A460A91C1
:10113000FFF7F6FB05460A9930E613F0020426D0C5
:101140004FF0010A56F8040B0B916B1C0A932A46C8
:101150004346C0B2C8470B996CB30A9A544620E084
:101160000A9143462020C8470A990AEB05020AF172
:10117000010A5745F4D8002F07F1FF3308BF0023B9
:1011800007F1010A1D4408BF4FF0020ADAE7A24640
:10119000EBE70B9143462020551CC8470B990134BF
:1011A0002A46BC42F5D30A9AA7EB0A03574538BF33
:1011B00000231A440A920A9DF0E5324652F8046B65
:1011C0000A92414A002E08BF1646002C14BF224640
:1011D0004FF0FF323244B4469CF8000008B1944509
:1011E00011D113F48062ACEB060A0B9202D0A24537
:1011F00028BFA24613F002030C931DD1AAEB0503EE
:101200002A460E930AE00CF1010CE5E7531C0D93FE
:101210000F9143462020C8470D9A0F990E9BD31873
:101220009F42F3D8A7EB0A03574538BF00230AF1C2
:1012300001021D4403EB020AAB1B0D9305E01C46A3
:101240000E9143462A46C8470E990D9B9D1916F8E4
:10125000010B28B10B9B002BF2D0631E002CEED1AA
:101260000C9B9BB12A46AAEB050406E00B91434672
:101270002020561CC8470B9932461319BB42F5D3A0
:10128000A7EB0A03574538BF00231D440A9E85E596
:1012900043F0210305930823CDE9034310220023E3
:1012A000CDE9013256F8043B00932A4643464846AE
:1012B0000A91FFF7C9F83DE743F020031022A3E6A7
:1012C0000822A1E602229FE69C5E010808B50C4BAD
:1012D00093F89C240AB1002008BD1A885B889A42C2
:1012E000F9D10848802101F067FB0128F3D10548B6
:1012F000082101F061FB013818BF0120ECE700BFB5
:10130000180B0020003000400FB42DE9FF410AAA5D
:10131000234852F8043B03920092224C4FF0FF32D4
:1013200002A9FFF72FFD94F89C8400230546ADF831
:101330000A30B8F1000F2DD172B60DF10A00FFF797
:101340009BFCBDF80A3023B304F20442A4F89034A5
:10135000154B164FC4F884240126154AC4F88C3462
:1013600004F284401E23C4F89824A4F89234C4F8EC
:10137000887484F8946400F05FFA94F8930441460A
:1013800000F0F0FA32460221384601F0D5FB84F82D
:101390009C6462B6284604B0BDE8F04104B07047D2
:1013A0008D020108180B00200001010000300040F0
:1013B000210D01080CB41FB506AC0A4654F8043BD5
:1013C0000094014604480394FFF7DCFC04B0BDE838
:1013D000104002B0704700BF83020108064B074867
:1013E000E02283F82220C0210023C2180133252BDC
:1013F00082F80013F9D1704700ED00E000E100E051
:101400000F4A08B5D2F8883043F47003C2F8883028
:101410004FF08042D36843F08003D36002F500327E
:10142000536923F4702343F48033536193689B071B
:10143000FCD5FFF7D3FFBDE8084000F003B800BFBC
:1014400000ED00E008B5012000F00AFE0C4B9842C8
:1014500014D90C4A0133B0FBF3F313700A4A4FF46A
:101460007A73B0FBF3F04FF0E0230138E0215861CC
:1014700082F8231000229A6107221A6108BD00BF7A
:101480003F420F00B50F002000ED00E030B50A4BE1
:101490004FF0E0211B784D695BB18C695843002304
:1014A0008A699442FCD0234498BF5B199B1A8342FB
:1014B00000D330BD1446F3E7B50F00204FF47A7324
:1014C0005843FFF7E3BF10B5012404FA02F2013AD2
:1014D0009A4206D304688A4024EA02028B401343EE
:1014E000036010BD70B5057C06460C468DB1C37B0C
:1014F000002B5ED1F37A9F48C3F103030168DB0040
:101500003F229A4021EA0201B27B02FA03F30B4325
:101510000360F37B03F5802323331B030F22C3F8FF
:101520003823C3F84023C3F84823C3F85023C3F833
:101530005823F17A03F5687200294DD11168C80764
:10154000FCD403F10802626003F11002A26003F10F
:101550001402E26003F11802A26103F11C0222618D
:1015600003F14002236062614433E361002D40F0E7
:101570008680A269136823F0C06343F00073136090
:10158000A269136823F0C07343F400031360A069D9
:101590002B4603221421FFF796FFA269136823F458
:1015A000C0631360A269136823F4C07313602B46F1
:1015B00087E0012B40F09880F37A6E48C3F1030373
:1015C0004168DB003F229A4021EA0201B27B02FA25
:1015D00003F30B4343609CE7012919D11168890784
:1015E000FCD403F15802226003F16002626003F14F
:1015F0006802A26003F16C02E26003F17002A26172
:1016000003F17402226103F1980262619C33ACE73A
:10161000022919D111684807FCD403F1B0022260F5
:1016200003F1B802626003F1C002A26003F1C402D8
:10163000E26003F1C802A26103F1CC02226103F16E
:10164000F0026261F43390E711680907FCD403F5F6
:101650008472226003F58872626003F58C72A26066
:1016600003F58E72E26003F59072A26103F5927247
:10167000226103F5A472626103F5A67375E7012D7B
:1016800033D1A269136823F0C06343F00073136081
:10169000A269136823F0C0731360A0692B4603226C
:1016A0001421FFF710FFA269136823F4C0631360CD
:1016B000A269136823F4C07343F480731360F37A50
:1016C00000256269E0690021116004220B21FFF707
:1016D000FAFE2B460422E0690721FFF7F4FEE269D7
:1016E000136823F00203136070BD022D1ED1A2699E
:1016F000136823F0C0631360A269136823F0C073FA
:101700001360A0692B4603221421FFF7DCFEA269B7
:10171000136823F4C06343F480631360A269136801
:1017200023F4C0731360F57A0023CAE7032D1FD199
:10173000A269136823F0C0631360A269136823F0E1
:10174000C0731360A0692B462A461421FFF7BBFE25
:10175000A269136823F4C06343F480631360A26931
:10176000136823F4C07343F480731360F57A1EE7A3
:1017700000251CE700100040154BD3F8F022D107DC
:1017800010B517D4D3F8F022920715D4D3F8F0325D
:1017900013F0040F14BF022403240E4B53F824301B
:1017A00003B198470A4B4CB90122C3F83823C3F858
:1017B000402310BD0024F0E70124EEE7012C01D105
:1017C0000222F2E7022C0CBF04220822EDE700BF40
:1017D00000300240B80F0020154BD3F8F022D1079B
:1017E00010B518D4D3F8F022920716D4D3F8F032FB
:1017F00013F0040F14BF022403240E4B221D53F8D0
:10180000223003B198470A4B4CB90122C3F8382360
:10181000C3F8402310BD0024EFE70124EDE7012CBD
:1018200001D10222F2E7022C0CBF04220822EDE7CC
:1018300000400240B80F002030B589B00446202295
:101840000021684603F04CF8002C4DD06946204634
:10185000FFF748FE029A069800231360039A13606C
:10186000A389049A43F480531360637A03220E2100
:10187000FFF729FEA37A069803220B21FFF723FE28
:10188000237A069803220421FFF71DFE237A069887
:1018900003220121FFF717FE069A13680B4313601A
:1018A000009B22681A60019B62681A60E07B2B4BE8
:1018B0004022D8B94FF00041196083F81F2300F58A
:1018C00080236569E27A23331B033DB3D3F81813F1
:1018D00092B941F4807141F00101C3F8181302EB91
:1018E00080021F4B43F8225009B030BD4FF4002155
:1018F000196083F81323E2E7012A04D141F400714F
:1019000041F00201E9E7022A0BBF41F4806141F492
:10191000006141F0040141F00801DEE742B9D3F86B
:10192000182322F4807222F00102C3F81823DBE7A7
:10193000012A06D1D3F8182322F4007222F0020201
:10194000F3E7022AD3F818230BBF22F4806222F4B3
:10195000006222F0040222F00802E6E700E100E063
:10196000B80F002000F580202330000300F56870D8
:1019700050F8083CDB075CBF012340F8083C49B93C
:101980000368DA07FCD440F2011303600368DB0745
:10199000FCD57047012906D103689907FCD440F2B1
:1019A000022303607047022905D103685A07FCD45B
:1019B00040F20443F5E703681B07FCD440F6080334
:1019C000EFE7000010B5C17BC27A01F58023233315
:1019D0001B03D3F8180392BB20F00100C3F81803CF
:1019E000D3F8A003C4070CD5186C40F4807003F141
:1019F0004004186420688005FCD54FF48070C3F85B
:101A0000A00300201860986002EB81023A4800248D
:101A100040F822401A688AB99A6D7AB9D3F8B02092
:101A200062B9D3F808214AB9344A002960D14FF08D
:101A30000041C2F880100022C3F8982310BD012A8B
:101A40001AD120F00200C3F81803D3F8A0038407CA
:101A50000ED5D3F8980040F4807003F19804C3F8D1
:101A6000980020688005FCD54FF40070C3F8A003EF
:101A7000002098651866C7E7022A1CD120F00400F0
:101A8000C3F81803D3F8A00344070ED5D3F8F00029
:101A900040F4807003F1F004C3F8F0002068800582
:101AA000FCD54FF48060C3F8A0030020C3F8B00059
:101AB000C3F8B800A8E720F00800C3F81803D3F86B
:101AC000A00304070ED5D3F8480140F4807003F555
:101AD000A474C3F8480120688005FCD54FF4006069
:101AE000C3F8A0030020C3F80801C3F810018BE776
:101AF0004FF400219DE700BFB80F002000E100E097
:101B0000144B15499A68D20444BF4FF480529A602E
:101B1000124B134A99619A611A6802F4007242F0FA
:101B200022021A60002299619A614FF0FF3202602E
:101B3000084A9168C90405D54FF4805393606FF04B
:101B4000670070479A68D207FCD501229A6000208E
:101B5000704700BF00F00040BFAE9D8C0000024007
:101B600016151413284B2DE9F34715469A68274C90
:101B70000746D00444BF4FF480529A60244A254B54
:101B8000A261A361236803F4007343F0240323607C
:101B90004FF00008A26125F0070905F007020E4684
:101BA000C4F818804D4538BF42464FF0FF3A4944CB
:101BB0006846CDE900AAFCF701F9134A4346301DF7
:101BC0004FF0010CAB4201D3002013E04B4535BF71
:101BD000F1580099E160E16034BFC1580199216179
:101BE00043F807A09168C90407D54FF48053936068
:101BF0006FF0670002B0BDE8F087A168C907FCD5A7
:101C0000C4F808C00833DDE700F0004000000240DF
:101C1000BFAE9D8C16151413012310B58B40062AF8
:101C200000F28580DFE802F0040F1C2938496600C5
:101C300002681A43026082681A438260C26822EA1C
:101C40000303C3600BE002681A43026082681A4310
:101C50008260C2681A43C26002691343036110BD07
:101C600002681A43026082681A438260C2681A439B
:101C7000C260026922EA0303F0E7026822EA030273
:101C80000260826822EA03028260426822EA03025A
:101C90004260826913430EE0026822EA0302026096
:101CA000826822EA03028260426822EA03024260FA
:101CB000826922EA03038361D1E7204CA0426FEAE4
:101CC00003020ED107290CD9816911408161816815
:101CD0001140816001680B43036003691A4002618F
:101CE000BDE701681140016081680A408260426876
:101CF0001A43CDE7114CA0426FEA03020AD107292B
:101D000008D9836913408361836813408360036843
:101D10001340E1E701681140016081681140816072
:101D200041680B43436083691A40826197E7026808
:101D30001A430260826822EA03027EE700FC014047
:101D4000072910B511D90E4B083998420BBF01EB8A
:101D50004101890007230F238B4002FA01F1C26B76
:101D600022EA03031943C16310BD836B89000F246A
:101D70008C4023EA040302FA01F119438163F3E77B
:101D800000FC0140034AD36803F00F030F2BFAD184
:101D9000704700BF00D00140114908B5FFF7F2FFBE
:101DA0000B6823F001030B60FFF7ECFF01238B614D
:101DB000FFF7E8FF4FF080435A6A50B142F020022B
:101DC0005A620B6843F020030B60BDE80840FFF740
:101DD000D9BF22F020025A620B6823F02003F3E7F8
:101DE00000D0014008B5FFF7CDFF034A136823F088
:101DF0000E031843106008BD00D0014008B5FFF77E
:101E0000C1FF40F6FF73984228BF1846014B586047
:101E100008BD00BF00D00140064908B58B69DB074B
:101E200003D5FFF7AFFF01238B61FFF7ABFF4B68D3
:101E30004B6008BD00D0014008B5FFF7A3FF044B7D
:101E40001A6842F011021A60DA68D207FCD508BDA0
:101E500000D00140436812B119434160704723EA42
:101E60000101FAE7FFF7F6BFC36803F00603062B8C
:101E7000FAD1036841B143F000730360C36803F013
:101E80000603062BFAD1704723F00073F5E7436889
:101E900019B143F400734360704723F40073FAE709
:101EA000C3689B07FCD58368194214BF012000203A
:101EB0007047C36803F00603062BFAD18160C3683C
:101EC00003F00603062BFAD17047C068C0F3C000C8
:101ED000704708B50346FFF7F8FF08B11869C0B2AC
:101EE00008BD000070B505460C4600F033F968B334
:101EF00004281B4A08BF4FF4FA42E3794BBB237A0C
:101F000053BB637A002B0CBF00264FF080766179BB
:101F1000A37920680B432179124C0B43B2FBF0F1FB
:101F200004EA812400FB1121420802EB01120E4950
:101F3000B2FBF0F2234301EA821213433343EA680F
:101F400002F00602062AFAD12B6070BD4FF400425F
:101F5000D3E74FF48006DAE74FF40006D7E700BF77
:101F600000093D0000FCFF03C0FF3F0008B5094B1E
:101F700098420DD100211B2000F0F8F801211B2010
:101F800000F0D2FBBDE8084000211B2000F0CCBBD4
:101F900008BD00BF00500040274B1B6910B59C07CF
:101FA00006D1264A536823F4700343F48013536028
:101FB000234A136943F004031361204B1A6881B16B
:101FC00022F0200202281A600ED81A6822F00302BA
:101FD0001043186000292BD01A4B04225A6030BFDE
:101FE00010BD42F02002EDE7174B1A6892060AD5A1
:101FF000164C174A9C619A611A6822F020021A60F6
:1020000000229C619A61134A136B5C045CBF43F429
:1020100080431363094B1A6842F003021A605A683E
:1020200003280CBF42F0807222F080725A60D1E720
:1020300040BF20BF20BFD3E70020001000180040A1
:1020400000ED00E000E100E000000240BFAE9D8C2A
:1020500016151413008000400121FFF79DBF0000FA
:102060004FF0804301461A6802F4E042B2F5A04FF7
:1020700020D015D8B2F5805F1ED0B2F5005F1B48A6
:1020800008BF4FF4004002291BD0032923D00129A7
:1020900005D14FF080431B68C3F30323D84070473A
:1020A000B2F5C04F0BD0114B1148B2F5E04F18BF3D
:1020B0001846E8E70F48E6E74FF4FA40E3E70E4832
:1020C000E1E74FF080421368C3F30323D84013685D
:1020D000C3F34213E2E74FF080421368C3F30323D4
:1020E000D8401368C3F3C233D8E700BF00366E018F
:1020F000006CDC020048E80100093D004FF080431D
:10210000DA6AD10506D51A6922F008021A61DA6A7C
:10211000D205FCD44FF08042536823F001031843EA
:10212000506070474FF08043986800F4C0307047AB
:102130004FF08043986800F4C04070474FF08043F0
:10214000986800F4C05070474FF08043986800F4DE
:10215000C06070474FF08043586800F00C00704733
:102160004FF08043586800F00200704741284AD879
:10217000DFE810F011020702FD01E401D201B9010C
:10218000710167015D01530149013F0135010D01F5
:102190000301D600EA00E000CC004900C200B8000C
:1021A000AE00A30099008F0085006B00610057000E
:1021B0004D004200170121012B014900490049004F
:1021C00049004900490049004900490049004900C7
:1021D000490049002E0225021B02380295014900E0
:1021E00049004900490049004900490049004900A7
:1021F0004900490042024C024FF08043DA6819B1AD
:1022000042F48012DA60704722F48012FAE74FF04D
:102210008043DA6811B142F40022F3E722F400228D
:10222000F0E74FF08043DA6811B142F48022E9E729
:1022300022F48022E6E74FF08043DA6811B142F4DD
:102240000032DFE722F40032DCE74FF08043DA6847
:1022500079B142F48032DA604FF080439A6A02F03A
:102260003F023F2AFAD15A6931B142F004025A6161
:10227000704722F48032EEE722F00402F7E74FF0D5
:102280008043DA6811B142F40042BBE722F4004215
:10229000B8E74FF08043DA6811B142F48042B1E709
:1022A00022F48042AEE74FF08043DA6811B142F485
:1022B0000052A7E722F40052A4E74FF080431A69C6
:1022C00019B142F020021A61704722F02002FAE7A9
:1022D0004FF08043DA6811B142F4805292E722F461
:1022E00080528FE74FF08043DA6811B142F4006208
:1022F00088E722F4006285E74FF08043DA6811B185
:1023000042F480627EE722F480627BE74FF08043F4
:10231000DA6811B142F4807274E722F4807271E7D6
:102320004FF08043DA6811B142F020026AE722F0F0
:10233000200267E74FF08043DA6811B142F0800273
:1023400060E722F080025DE74FF08043DA6871B108
:1023500042F04002DA604FF080439A6A02F03F0296
:102360003F2AFAD15A6929B142F008027FE722F0E8
:102370004002EFE722F0080279E74FF08043DA6885
:1023800011B142F010023DE722F010023AE74FF09F
:102390008043DA6811B142F0007233E722F0007234
:1023A00030E74FF08043DA6811B142F0807229E7DC
:1023B00022F0807226E74FF08043DA6811B142F4D0
:1023C00000021FE722F400021CE74FF08043DA68A6
:1023D00011B142F4800215E722F4800212E74FF0B7
:1023E0008043DA6811B142F008020BE722F00802DC
:1023F00008E74FF08043DA6811B142F0040201E7C8
:1024000022F00402FEE64FF08043DA6811B142F098
:102410000202F7E622F00202F4E64FF08043DA68A7
:1024200011B142F00102EDE622F00102EAE64FF0BE
:102430008043DA6811B142F00062E3E622F0006204
:10244000E0E64FF08043DA6811B142F08062D9E6ED
:1024500022F08062D6E64FF080431A6979B142F4E7
:1024600000721A619A6A02F03F023F2AFAD15A6951
:1024700042F010025A611A6942F0100223E722F07A
:1024800010021A619A6A02F03F023F2AFAD15A6991
:1024900022F010025A611A6922F4007213E74FF019
:1024A00080431A6979B142F480521A619A6A02F043
:1024B0003F023F2AFAD15A6942F020025A611A6952
:1024C00042F40062FFE622F400621A619A6A02F0A6
:1024D0003F023F2AFAD15A6922F020025A611A6952
:1024E00022F48052EFE64FF080431A6971B142F056
:1024F00008021A614FF080439A6A02F03F023F2AB5
:10250000FAD15A6929B142F00102B0E622F008027C
:10251000EFE722F00102AAE64FF080431A6931B1D9
:1025200042F004021A611A6942F04002CBE622F03E
:1025300004021A611A6922F04002C4E64FF0804397
:102540001A6971B142F002021A614FF080439A6A2F
:1025500002F03F023F2AFAD15A6929B142F0020241
:1025600085E622F00202EFE722F002027FE64FF05A
:102570008043DA6811B142F0805243E622F0805283
:1025800040E64FF080431A6911B142F001029AE629
:1025900022F0010297E64FF080431A6911B142F030
:1025A000800290E622F080028DE64FF080431A69A7
:1025B00011B142F4807286E622F4807283E64FF015
:1025C0008043DA6809B11A431CE622F0804219E61A
:1025D0004FF08043DA6811B142F0005212E622F067
:1025E00000520FE64FF080431A6911B142F4806245
:1025F00069E622F4806266E64FF08043DA6811B142
:1026000042F40012FEE522F40012FBE54FF0804395
:10261000DA6811B142F00042F4E522F00042F1E53F
:1026200010B50C4605280ED8DFE800F003151F286A
:1026300034653A4A3A49936934B123F020039361EF
:102640008B685B07FCD510BD43F0200393618B685A
:102650005C07FCD4F7E7314A936819B123F40043CF
:102660009360F0E743F40043FAE72C4A936811B112
:1026700023F4C043F4E743F4C043F1E7274A9369E6
:1026800023F0180319B143F008039361DBE743F02B
:102690001003FAE701210E20FFF768FD214BD3F864
:1026A0000421FCB190060BD4D3F8042142F020029F
:1026B000C3F80421D3F8042122F08002C3F80421D6
:1026C000184BD3F8042142F00302C3F80421D3F8D5
:1026D000042142F00402C3F80421D3F80821910731
:1026E000FBD5B0E722F00402C3F80421D3F8082197
:1026F0009207FBD4A7E7094A0949936934B123F04B
:10270000400393618B68002BFCDA9CE743F04003A5
:1027100093618B68002BFCDB95E700BF00800040D5
:1027200000820040009000403F281ED82F280DD97D
:102730000123303803FA00F04FF08043DA6911B911
:102740001043D861704722EA0000FAE7A0F12003A5
:10275000DBB2022B98BF0D20012303FA00F04FF0EB
:1027600080439A6911B910439861704722EA0000CA
:10277000FAE708B500210320FFF7F8FC0121032048
:10278000FFF7D2FFBDE8084000210320FFF7CCBFD0
:10279000034940F6FF53CA6A33EA0202FBD170478D
:1027A00000E0004008B5FFF7F3FF054B1A6818B1C9
:1027B00042F080521A6008BD22F08052FAE700BF52
:1027C00000E0004008B5FFF7E3FF054B1A6818B1B9
:1027D00042F080721A6008BD22F08072FAE700BFF2
:1027E00000E00040012808B50AD8FFF7D1FF054BEB
:1027F0001A6801280CBF42F0007222F000721A60C1
:1028000008BD00BF00E00040F8B5054600285ED0D6
:10281000314B5F6BB9B25E6C5A6CB242FBD19C6CAF
:102820009A6CA242FBD15A6B92B29142F1D100292B
:10283000EFD0FFF795FCBFB207EE907AB8EEE77ADB
:10284000F6EE007A002843D1DFED246AC6F30213C6
:1028500006F00F0203EB830302EB4303EB71C6F3B5
:10286000C223C6F3C31203EB830302EB4303AB7132
:10287000C6F3814303EB8303C6F3833606EB4306BB
:10288000C4F3011304F00F0203EB830302EB4303D1
:102890002B71C4F38023C4F3831203EB830302EB95
:1028A0004303E7EE267AEB70C4F3C223AB70C4F3A4
:1028B000834303EB8303C4F38334FCEEE77A04EB36
:1028C000430404F5FA64C5ED027A6E712C80F8BDFC
:1028D000DFED036ABAE700BF00E000400024F441E6
:1028E0000000FA41402810B50C4608D0431EDBB268
:1028F0001F2B09D8054A22FA03F3DB0704D5FFF79B
:1029000047FF0CB9024BD86110BD00BF8B8000801F
:1029100000E00040402808B508D0431EDBB21F2B62
:102920000ED8084A22FA03F3DB0709D5FFF730FF78
:10293000054BDB6930EA03030CBF0120002008BD12
:102940000020FCE78B80008000E0004080280AD057
:10295000402808D0431EDBB21F2B0DD8074A22FAAD
:1029600003F3DB0708D5012906D8054B9A6A0CBF8B
:10297000104322EA00009862704700BF8B800080FD
:1029800000E0004008B518B1FFF702FF014B986165
:1029900008BD00BF00E00040BFF34F8F0449054B66
:1029A000CA6802F4E0621343CB60BFF34F8FFEE7C7
:1029B00000ED00E00400FA0583690B4214BF01201A
:1029C0000020704783699B06FCD4016070474FF478
:1029D000E133036060238380002383714FF440134D
:1029E00083607047036B19B143F0010303637047C1
:1029F00023F00103FAE7000038B5036B23F001036D
:102A00000363C36A23F01003C36200238363464B4E
:102A1000984204460D463ED1FFF784FBC00B0138B7
:102A2000022850D8414B53F820002B68B0EB031F0D
:102A30004FEA031175D36BB1B0FBF1F201FB120049
:102A4000C000B0FBF3F000F0010303EB500080B2D4
:102A500040EA02431A0C03F03F036262A362E36A96
:102A60002A7923F060031343E362E36AAA7923F02F
:102A700008031343E362EB7A8BB3E36A43F010037A
:102A8000E3626B79012B2ED0022B42D09BBBE36A11
:102A900023F002032EE0B0F1402F04D1FFF748FBF2
:102AA000C0F34F30BBE7224B984204D1FFF746FBFF
:102AB000C0F3CF20B3E71F4B98420ED1FFF744FB82
:102AC000C0F34F20ABE7184B9C4202D0B4F1402F2B
:102AD00003D10220FFF7C4FAA7E70320FAE7E36A6D
:102AE00023F01003CCE7E36A43F00203E362E36AF6
:102AF00023F00403E362236BAA7A23F03003134329
